:020000040C00EE
:1000000000D0FE1F010200089902000899020008B2
:1000100099020008990200089902000800000000F7
:10002000000000000000000000000000990200082D
:1000300099020008000000009902000899020008D7
:100040009902000899020008990200089902000824
:100050009902000899020008990200089902000814
:1000600099020008000000000000000000000000ED
:100070009902000800000000990200089902000897
:1000800099020008990200089902000899020008E4
:1000900099020008990200089902000899020008D4
:1000A00099020008990200089902000899020008C4
:1000B00099020008990200089902000899020008B4
:1000C00099020008990200089902000899020008A4
:1000D0009902000899020008990200089902000894
:1000E0009902000899020008990200089902000884
:1000F0009902000899020008990200089902000874
:1001000099020008794E0008990200089902000837
:100110009902000899020008990200089902000853
:1001200099020008114E000899020008990200087F
:100130009902000899020008990200089902000833
:100140009902000899020008990200089902000823
:100150009902000899020008990200089902000813
:10016000000000000000000000000000000000008F
:1001700099020008990200089902000899020008F3
:1001800099020008990200089902000899020008E3
:10019000990200089902000899020008A138000895
:1001A00099020008AD380008F9450008ED4500083F
:1001B00099020008990200089902000899020008B3
:1001C00099020008990200089902000899020008A3
:1001D0009902000899020008990200080000000036
:1001E00099020008990200089902000849350008A0
:1001F00099020008000000009902000800000000B9
:10020000DFF874D01D4880471D4C1E4DAC4209DA02
:1002100021686268A368043BA2BFC858D050FAE7BF
:100220000C34F3E7184B194CA34208DA19685A68E2
:100230000020043AA4BF8850FBE70833F4E71448D1
:100240008047144880470000A416010C00D0FE1F10
:10025000C8070000A416010C00D0FE1F000000001B
:10026000C8D7FE1F6830000000000020000E00000C
:10027000000E00200000000000D0FE1F71210008C9
:1002800048020008600200086002000878020008C6
:1002900051E900086DE30008FEE7000001F0FC03EF
:1002A0000344F0B501F003051E691D4FED00F8246D
:1002B000AC4026EA04041C61466F4FEA410E032459
:1002C00004FA0EF426EA0404B84244671FD0154C21
:1002D000A0421CD01478260614D55768167ACA088E
:1002E00000EB82028F40476001F00701176C890024
:1002F0000720884027EA00001064106C06FA01F11C
:10030000014311641A69AC4014431C61F0BD066ED0
:100310001478012707FA01F226EA02020266F1E7E1
:10032000008E0248008F0248030F03EB4303034A89
:1003300020F0704042F82300704700BF1044005086
:10034000030F03EB4303034A20F0704042F82300FD
:10035000704700BF14440050034B044A5B691068A7
:1003600003F00103D840704700460050C0FF03204F
:10037000034A936923F4803318439061704700BFA8
:1003800000460050034A536A23F440331843506236
:10039000704700BF00460050054AD2F8C4301B0722
:1003A000FBD4044AD36823F040031843D06070475D
:1003B0000040005000430050034A9369013823F085
:1003C000070303439361704700460050034AD36913
:1003D000013823F03F030343D361704700460050C8
:1003E000034A536A013823F0FF0303435362704703
:1003F00000460050014B5860704700BF0046005057
:10040000030F03EB4303034A20F0704042F823003C
:10041000704700BF44460050030F03EB4303034AF9
:1004200020F0704042F82300704700BF484600505B
:100430000F4B5A6942F001025A615A6901380006AD
:10044000013942F0100240EA01205A6158615A69AC
:1004500042F040025A615A6922F010025A615A6908
:1004600042F480225A611A695207FCD5704700BFD6
:1004700010470050024B4FF440325A60704700BFA3
:1004800000420050024B4FF440329A60704700BF68
:1004900000420050F0B583B0644C089EC0B1E068E3
:1004A00040F4807040F001000129E06000F0868097
:1004B0005E4A9368013E23F07F031E4396605368B3
:1004C00043F0010353601368DB07FCD503B0F0BDB4
:1004D000E06820F4807020F001000129E060E7D19D
:1004E0008DE80C0004F0EEF8514DA5FB00359DE8B9
:1004F0000C00AD0CAD054D494E4C4F684E4847F0D1
:1005000001074F604F6847F010074F60D1F808E0CF
:1005100003FB05F5571EB5FBF2F50EEA0000A4FB40
:10052000054240EA07605C1E930E40EA0420013B4E
:1005300040EA03438B604B6843F040034B604B68D9
:1005400023F010034B604B6843F480234B60086832
:10055000364B4207FBD55A6822F001025A60194611
:100560000B68324A13F00104FAD1344BA3FB051394
:10057000DB0E9E423FD3324F324B6D08A3FB052367
:10058000DB0E9E421DD3294A9368013E23F4FE03ED
:1005900043EA0646966001F0A9FD3B68244AA2FBA7
:1005A0000332920C322303FB02F20023002A8DD087
:1005B00000BF01339342FBD103B0F0BD4FF0C065E3
:1005C00099E71A498A68013B22F4FE0242EA034392
:1005D0008B6001F08BFD3B68154AA2FB0332920C45
:1005E000322303FB02F2002ACDD0002300BF0133E7
:1005F0009342FBD1C7E79168114F21F4FE01013B03
:1006000041EA0343936001F071FD3B68084AA2FB95
:100610000332920C322303FB02F2002AACD02346B1
:1006200000BF01339342FBD1A6E700BF1047005043
:1006300083DE1B43ABAAAAAAFF8080F08988888842
:10064000C0FF0320B7600BB67849794ACB68F0B594
:1006500023F48033CB6013680546D80783B004D4F5
:10066000012353601368DB07FCD5724A13689905B0
:1006700005D54FF40073936013689F05FCD4EB79A4
:10068000002B40F09180687A6B4AD2F8C4301B0787
:10069000FBD46A49684BCA6822F080020243CA60F0
:1006A000D3F8C440002CFBD1654A297A536801294C
:1006B00043F48013536000F09F80624E01F016FDFA
:1006C0003368614AA2FB0332920C642303FB02F2FB
:1006D00022B1002300BF01339342FBD1534B2C7C4A
:1006E000DA68A87922F0FF01621E0A43DA601A690B
:1006F0006C7C22F00101621E0A431A611A6AAC7C0A
:1007000022F00101621E0A431A625A69EC7C22F04F
:100710000101621E0A435A6128BBE978A1B9484A1F
:10072000536843F4803343F002035360EB68B3F53E
:10073000803F04D13D4AD36843F48033D36003B093
:10074000BDE8F04001F0D2BC3D4AA888536823F4CC
:10075000803323F002035360AC786A782B780094DE
:10076000FFF798FEE2E7364C384F636823F4803396
:1007700063607E6803F0A6FF354AA2FB0032120DCB
:1007800026F47023013A23F0300343EA02437B60EE
:10079000636823F4003363602246136803F46073D4
:1007A000B3F5607FF9D1B8E72A49244A4FF4000332
:1007B000CB60D36923F03003D3614A68254B16021E
:1007C000FBD51E494FF400320820DA601A46486013
:1007D0005168204B8C03FBD54FF400221749DA6097
:1007E000CA6842F00802CA605A681003FCD5134A6E
:1007F00013681907FCD446E75368124E23F480139C
:10080000536001F073FC104A3368A2FB03239A0C77
:10081000642303FB02F31BB100BF01349C42FBD1F4
:10082000074A536843F40023536047E700460050EB
:10083000004200500044005000400050004300506F
:1008400010470050C0FF032083DE1B4300470050C9
:100850006BCA5F6B7440005038B5044610200D46DB
:10086000FFF7C8FD194B9C421AD0194B9C421ED071
:10087000184B9C4222D0184B9C420AD0E36843F4A8
:100880008073E360216821F4404141EA85312160B1
:1008900038BD1248FFF7C0FD1048FFF751FDEDE7E6
:1008A0000420FFF7B9FD0420FFF74AFDE6E7082022
:1008B000FFF7B2FD0820FFF743FDDFE71020FFF749
:1008C000ABFD1020FFF73CFDD8E700BF00C00040A3
:1008D00000000140004001400040004801000010BD
:1008E00070B44B790E79096841611C461D46324649
:1008F000C3F3401306F00F0605F00F05C4F3001113
:100900001B051209436046620562816170BCC262C8
:10091000704700BF836A23F4706343EA0123836254
:1009200041627047092930B4D0F8A8400DD8094B6E
:10093000094D53F8213055F82110DB4323408A40FC
:100940001A43C0F8A82030BC70470C216FF4405304
:10095000F4E700BFB8F2000890F2000801F0FC03D1
:10096000184401F0030110B4C9000469F8238B4056
:1009700024EA0303036103695DF8044B8A401343CF
:100980000361704710B44900446F03238B4024EA8D
:1009900003034367436F5DF8044B8A401343436787
:1009A000704700BF38B50D46044601F0B3FAAB8876
:1009B000184A626303F4F842B2F5F04F23D01B02E9
:1009C000E3632968144B994214D9144B994208D90E
:1009D0004FF4A0614FF0FF320023A163E26423646F
:1009E00038BDE36B43F40033E3632046192201F082
:1009F000D3FAEDE7E36B23F40033E36320460A22E6
:100A000001F0CAFAE4E75A0002F47E42DBB2134373
:100A1000E363D6E703033F07A0860100801A0600C0
:100A2000D0F80831012A41F4806108BF41F001018A
:100A300013F0E06F02D0C0F880117047836B1B0683
:100A4000FCD4C36C43F40053C364C0F880107047F7
:100A5000D0F80831012A41F4A06108BF41F001013A
:100A600013F0E06F02D0C0F880117047836B1B0653
:100A7000FCD4C36C43F40053C364C0F880107047C7
:100A8000D0F8083113F0E06F04D04FF4C063C0F821
:100A900080317047836B1B06FCD4C36C4FF4C0627B
:100AA00043F40053C364C0F880207047D0F8083185
:100AB00013F0E06F02D0C0F880117047836B1B0603
:100AC000FCD4C36C43F40053C364C0F88010704777
:100AD000D0F8083113F0E06F04D04FF40073C0F881
:100AE00080317047836B1B06FCD4C36C4FF40072DB
:100AF00043F40053C364C0F880207047D0F8083135
:100B000013F0E06F04D04FF44073C0F880317047A9
:100B1000836B1B06FCD4C36C4FF4407243F4005348
:100B2000C364C0F880207047D0F80C3113F0E06F38
:100B30000CBF406DD0F81C01C0B27047036C064A70
:100B400010B401F4FE3423430364C36B5DF8044B1B
:100B50000A401343C36370470000FC41036C074A1B
:100B600010B401F4FE3423EA04030364C36B5DF89C
:100B7000044B0A4023EA0203C36370470000FC41B0
:100B800070B50D46044601F0C5F9EA7932B356084E
:100B9000013636022046296801F0FEF9AB79013BA7
:100BA0005B0043F4403343F001033343E3632B79A9
:100BB000013B1B0643F4817363636B7903B92B79A3
:100BC000626B013B42EA034363634FF4A0612B89EC
:100BD000A1634FF0FF32E264236470BD4FF41066EE
:100BE0001022D7E7D0F8083113F0E06F02D0C0F838
:100BF00080117047836B1B06FCD44FF40053C36411
:100C0000C0F88010704700BFD0F80C3113F0E06FCF
:100C10000CBF406DD0F81C0180B2704700206FF30C
:100C200000006FF3410040F01C006FF3451040F4EA
:100C3000E070C0F308007047044BD3F8A421536858
:100C40006FF3410353600020704700BFA001FF1FF6
:100C5000044BD3F8A421536843F0020353600020EF
:100C6000704700BFA001FF1F444A017B70B492F897
:100C7000FE41002004F0010400297CD053681E07C7
:100C800056BF53680123C3F30013012954D9956B50
:100C90003A4E2D0761D4B56B15F0100F18BF012324
:100CA000022949D0D56E354E2D0762D4F56E15F068
:100CB000100F18BF012303293ED0D2F8A0502F4EA9
:100CC0002D0754D4D6F8A05015F0100F18BF0123EB
:100CD000042931D0D2F8D450284E2D0745D4D6F867
:100CE000D45015F0100F18BF0123052924D0D2F8D5
:100CF0000851224E2D0736D4D6F8085115F0100FA2
:100D000018BF0123062917D0D2F83C511B4E2D07DE
:100D100027D4D6F83C5115F0100F18BF012307292E
:100D20000AD0D2F87011154D090718D4D5F87011F2
:100D300011F0100F18BF012303F0010392F8FE21F8
:100D4000C2F3800262F3000064F3410063F38200A7
:100D5000012363F3C40070BC70470123A0E70123A3
:100D6000EAE70123DBE70123CCE70123BDE7012309
:100D7000AEE701239FE70346E0E700BFA001FF1FA6
:100D8000044BD3F8A4311A6811B960F30A121A603F
:100D900000207047A001FF1F00F00F02E9B13423CB
:100DA00010F0800F03FB02F31D48C35C03F00F0338
:100DB0000BBF00EB83036A33D3F8C41150F8231040
:100DC0000B6843F400130B60342303FB0202002082
:100DD000137943F020031371704710B4342310F0DB
:100DE000800F03FB02F30E48C35C03F00F030BBF3D
:100DF00000EB83036A33D3F8C44150F823402368DF
:100E000061F3555343F080532360342303FB020204
:100E10005DF8044B13796FF345130020137170478D
:100E2000A001FF1F00F00F00342202FB00F20D4B67
:100E3000995C1A4411F0800F51680CBF21F0100129
:100E400021F008015160342202FB003300201A799E
:100E5000D8626FF345121A7118619861986218632D
:100E6000704700BFA001FF1FF0B53D4B00F00F0021
:100E7000342101FB00F15A1813F801E01479D3F87A
:100E8000A47114F0040F0EF00F06FD694FF000017D
:100E90005AD004F0FB046FF345141471546824F025
:100EA00010045460546861F3CF3141F0904124F054
:100EB00008044FF0010C1EF0800F6FF35551546081
:100EC0000CFA06FC2FD006F16A0E6FEA0C0453F8F8
:100ED0002EE0CEF8001012791FFA84FE0EEA050CFF
:100EE00092076CF30F050DD11E4A126803EB8606BC
:100EF000527BD6F8C4610EEA154E012A31606EF3BA
:100F00001F4528D0342202FB0030FD618088B3F8F1
:100F1000FC11C0F383100122824021EA0202A3F8EF
:100F2000FC210020F0BD127994070FD106F16A026E
:100F30006FEA0C041FFA84FE53F822200EEA050C17
:100F40006CF30F051160CFE70120F0BD6FEA0C04D0
:100F50001FFA84FEC8E77A6B14407C63D2E700BFB7
:100F6000A001FF1F9C01FF1F034BD3F8A431986819
:100F7000C0F30D20704700BFA001FF1F054B93F881
:100F8000FE0100F00500A0F10500B0FA80F0400974
:100F9000704700BFA001FF1F0748D0F8A42108B583
:100FA000536843F00203536000214FF402720DF0C6
:100FB00018FD002008BD00BFA001FF1F2DE9F04F64
:100FC0009A4DDFF86C82D5F8A431DFF868A2D3F827
:100FD0001CE0DFF8649200F00F0C342707FB0CF7DD
:100FE000EE1906F108030024EC51746043F8044B39
:100FF00043F8044B43F8044B43F8044B43F8044BC9
:1010000043F8044B43F8044B43F8044B43F8044BB8
:1010100043F8044B1C603379E85543F00403337103
:101020007468334662F3D12443F8044F00285C68A7
:101030004FF6C07008BF402060F312045C60EB5DA7
:1010400003F00F03180208F5E06B08EB000400EB57
:101050000B085AF82300306259F823007061F461DC
:10106000C6F80C80E85D00061FD400297FD005EB90
:1010700083040120D4F8C4613468984044F40044E7
:1010800061F3934480B262F30A0444F080546FF336
:10109000555440EA1E40346060F31F4ED5F8A43129
:1010A0000020C3F81CE0BDE8F08F03F16A0055F89A
:1010B0002060346844F4004461F3934400295FD015
:1010C00062F30A04B5F8FC0144F0805410F0010703
:1010D0006FF3555400F08E80870740F18E804707EC
:1010E00040F18F80070740F19080C70640F1918062
:1010F000870640F19280470640F19380070649D465
:1011000007274FF0800848EA0000A5F8FC013420CA
:1011100000FB0CFC05EB0C0967F39954B9F804A02B
:10112000DFF8088167F3891AA9F804A00120346068
:10113000984015F80C4080B240EA0E06240666F38B
:101140000F0E29D50029A9D108EB8303D3F8C46178
:10115000346844F4004461F39344102A3CD034D9F9
:10116000202A2ED0402A90D16FF30A048DE703F194
:101170006A0055F82060346844F4004461F39344F5
:10118000102A31D015D9202A2AD0402A9AD16FF3BB
:101190000A0497E70027BAE708EB8303D3F8C46192
:1011A000346844F4004461F3934400297FF46BAF46
:1011B000D3E7082A86D1032755F8206067F30A048D
:1011C00080E7012363F30A045FE7082A7FF45DAF39
:1011D000032363F30A0458E7022363F30A0454E782
:1011E000012060F30A046DE7022755F8206067F3D9
:1011F0000A0467E74FF0010885E701274FF002086E
:1012000081E702274FF004087DE703274FF0080825
:1012100079E704274FF0100875E705274FF02008FD
:1012200071E706274FF040086DE700BFA001FF1FE0
:1012300000000020E4D7FE1FC8D7FE1FF8B50E4FF0
:10124000342404FB007406462569A36995420846C8
:10125000E16828BF154619442A460DF0B7FB2369FB
:101260005B1B23610BB1A3692B44342202FB06767E
:101270002846B361F8BD00BFA001FF1F2DE9F04F64
:10128000074683B069486A4C6A4E6B4DFFF7C4F855
:101290006648FFF755F8FFF7EDF8684B00211F602F
:1012A0004FF402724023204633607360B360F360F2
:1012B00033617361B3612B606B60AB60EB602B617A
:1012C0006B61AB610DF08DFB3B687D7B9A68786844
:1012D000BE68B5FA85F103F5006A490903F510699E
:1012E00042F08102C4F80002C4F80462C4F8A4A168
:1012F000C4F8A89161F3451203F5126803F5146C64
:1013000003F5166E03F5186703F51A6003F51C6BF9
:1013100003F5306103F5326603F5346A03F5366987
:10132000C4F8AC81C4F8B0C1C4F8B4E1C4F8B87171
:10133000C4F8BC01C4F8C0B1C4F8C411C4F8C86191
:10134000C4F8CCA1C4F8D09103F5804103F5386806
:1013500003F53A6C03F53C6E03F5805703F5005036
:1013600003F5405B03F5A04603F5C04A03F5E049E9
:10137000C4F8EC11C4F8A031C4F8D481C4F8D8C1C1
:10138000C4F8DCE1C4F8E071C4F8E401C4F8E8B1E1
:10139000C4F8F061C4F8F4A1C4F8F8919A60D9686F
:1013A00041F0804141F48071D960D3F8002842F0C7
:1013B00003026FF3D752C3F80028D3F804280021A2
:1013C00042F00202C3F804280091009A42F0200281
:1013D0000092009921F4F86141F480610091009A33
:1013E0001A611A690092009AC2F34012002AF8D1D9
:1013F0000192019A42F010020192019A1A611A694F
:1014000001920198C0F300100028F8D10C490D4A50
:101410009861012D18BF0A4642F440224FF0FF3177
:1014200059619A6103B0BDE8F08F00BF80000020D1
:10143000A001FF1FC8D7FE1FE4D7FE1F9C01FF1F9E
:101440000E3C00C01E3C00C0F0B400F00F0034247D
:10145000334E04FB00F4321982B05368C3F3001317
:10146000002B36D115796D0733D5956801955569EF
:10147000D768D362A94228BF2946019D1361C5F3ED
:1014800012058D4228BF0D46116395625762345D87
:10149000240722D0002D37D1012262F3DC43214AF8
:1014A0001268527B2ABB342202FB00F03118325CF6
:1014B000496A02F00F0206EB8202D2F8C4215161A0
:1014C00013611368002043F00443136002B0F0BCC2
:1014D0007047012002B0F0BC7047012262F3D44390
:1014E000104A1268527B43F0C04361F30603002A9E
:1014F000D9D0342202FB00F0325C02F00F0206EB7E
:101500008202D2F8C421DBE75268C2F3C6214A1E28
:101510002A44B2FBF1F262F3DC4365F31203BEE747
:10152000A001FF1F9C01FF1F2DE9F84300F00F07EA
:101530003426394D06FB07F6AC1923795B0753D5E2
:101540006368180757D4236AE0699A4228BF1A468D
:1015500091460DF03BFA6368D4F81CC0C4F824C06F
:1015600043F0080300216360E162C4F83090A85D95
:10157000A36800F00F0000F16A0EC3F3120255F8E1
:101580002E804A4528BF4A46D8F800E0A262AAB396
:10159000AB5D1B072BD06368C3F3C624631E9BB2ED
:1015A00013FA82F3C2F3120293FBF4F3C3F30903B9
:1015B0001A4C2468647B62F3120163F3DC410CBBB8
:1015C000C8F814C0342303FB07F7EA19EB5D106B6E
:1015D00003F00F036A334EF0044E55F823301961BF
:1015E000C3F800E0BDE8F8830120BDE8F883C2F34A
:1015F00012020123DCE70020BDE8F883012363F336
:10160000DC41DFE7012CDDD1D5F8A421536B844008
:101610001C435463D6E700BFA001FF1F9C01FF1FBE
:101620002DE9F04FB94CD4F8A0319D695A698FB0BB
:1016300002EA050A5FFA8AF60190300700F1EB82B0
:10164000019A527B012A00F0F382CAF30725690749
:1016500044BF4FF480625A612A0700F1D2824FEAF8
:101660001A66370600F1C382700600F1B082E906FF
:1016700000F1F181AA0600F1D3811AF4802F40F025
:1016800005811AF4002F18D11AF0040F02D10FB0FF
:10169000BDE8F08F5D6868070BD594F8FE31D4F88B
:1016A00000226FF3820384F8FE3101209047D4F8C2
:1016B000A0315D600FB0BDE8F08FD4F8A42193692C
:1016C000D76952690292C3F30F43002213EA174706
:1016D000039200F09780DDF804B0CDF810A0164614
:1016E0003B4615464FF0340CB846DF0740F1818089
:1016F00006F1700904EB8902029952689BF80D30DB
:1017000097680F405FFA87FA002B40F081801169DB
:1017100003911AF0080F21D07C4A0CFB0620039A93
:101720000179C2F34172D20063F34511C2F118028C
:10173000017102610CFB0643CDF804C05A6822F027
:1017400010025A600020D4F804320146984704EB96
:10175000890308215A68DDF804C091601AF0010F6E
:1017600046D09BF80D30002B63D00CFB0643996AE2
:101770000CFB06431A6B8A4272D09868C1EB020ECA
:10178000C0F3120086450CFB06FE88BF091804EB67
:101790000E0098BF1146816214F80EE01EF00F0F84
:1017A0004FF0000300F1280A40F0AE82012161F3FE
:1017B000D44343F0C04362F30603554A1268527B98
:1017C0000CFB06F6002A40F0A682A25D02F00F0292
:1017D000A11904EB8202486AD2F8C41148610B6176
:1017E0000B6804EB890943F00443D9F804200B602B
:1017F00097600135EDB258FA05F32E467FF475AFC8
:10180000DDF810A0D4F8A0314FF400225A613BE774
:101810001AF0080FA2D03D4A0CFB0621012B0A79D1
:101820006FF345120A7185D10B69CA6A13440B61C3
:1018300080E70CFB0640039BC26A816AC3F3120374
:10184000C2EB010EC3EB0E0302EB030E426AC0F8BB
:101850002CE0134443620CFB06431A6B8A428CD182
:10186000CDF804C05A68D96A196122F010025A6092
:10187000264B2846D3F8043201219847234BDDF844
:1018800004C003EB8909D9F80420B1E7D4F8A431E6
:101890009A691B69039397B2002F61D00026B64660
:1018A0003B464FF0340BCDF810A0B946DB074FD5BF
:1018B0000EF16A030BFB0EF00293D4F8A4A154F8C6
:1018C000233014F800809D68DAF83410019A039FE1
:1018D000527B08F00F0C21FA0CF1C901C9B239434F
:1018E00020440D40B2B9EF071A6930D522F06042AA
:1018F000002A00F01882816A0BFB0E42136B8B42A8
:1019000033D1536823F00803536017E0A001FF1F91
:101910009C01FF1F012A02D1290600F12A82E90752
:1019200015D50BFB0E40036B816A8B421DD14368BA
:10193000012A23F00803436000F07382D4F80432D4
:1019400046F0800002219847029B54F823309D60A6
:101950000136F6B259FA06F3B646A7D1DDF810A063
:10196000D4F8A03100225A618BE60BFB0EF2A018CE
:10197000A25C8068C1EB0308C0F3120C02F00F02F6
:10198000E045069202F16A0228BF01EB0C030BFB53
:101990000EFC54F82220059204EB0C0112688B62B5
:1019A000002001F12808002B00F0DD8114F80CC0A4
:1019B0001CF00F0F00F0CF814968D8F80470C1F314
:1019C000C62C0CF1FF38D91B0B461FFA88F818FA01
:1019D00081F1C3F3120391FBFCFCCCF3090CC24967
:1019E0000968497B63F312006CF3DC40002940F086
:1019F0000D820BFB0E4305995B6A4B610BFB0EFEE0
:101A0000029B14F80E1054F8233001F00F016A31D4
:101A100042F0044254F8211008610A609D6097E783
:101A2000D4F8A81194F8FE210B68D4F800526FF393
:101A30000A0342F005020B60022084F8FE21A84749
:101A4000D4F8A031DA68092161F38D224FF40051F6
:101A5000DA60596111E6D4F8A411D4F8C4914A6847
:101A6000D4F8D471D4F8D861D4F8DC0142F0010282
:101A700004F5E47898E800514A60D9F8002042F073
:101A800000626FF35552C9F80020D8F80020DFF843
:101A9000689242F000626FF35552C8F80020DCF8FB
:101AA0000020DFF8588242F000626FF35552CCF804
:101AB0000020DEF80020DFF848C242F000626FF339
:101AC0005552CEF800203A68DFF838E242F0006262
:101AD0006FF355523A603268844F42F000626FF300
:101AE000555232600268824E42F000626FF35552E6
:101AF000026040204FF48012586260F30F02002011
:101B00009A62C3F80491C3F80881C3F80CC1C3F802
:101B100010E1C3F81471C3F818610D900D9A42F0EA
:101B200020020D920D9A22F4F86242F480620D9226
:101B30000D9A1A611A690D920D9AC2F34012002A89
:101B4000F8D10C920C9A42F020020C920C9A22F4DA
:101B5000F8620C920C9A1A611A690C920C9AC2F3F0
:101B60004012002AF8D10B920B9A42F010020B920D
:101B70000B9A1A611A690B920B9AC2F30012002A8F
:101B8000F8D14FF00113CB614B69019843F00F037B
:101B9000407B4B610B6943F00F030B610B6801281D
:101BA00062F30A130B6008BF4A636368D4F800222B
:101BB00023F010036360636823F00803636004206C
:101BC0009047D4F8A0314FF480525A6152E594F80E
:101BD000FE31D4F8002243F0040384F8FE310020E3
:101BE0009047D4F8A0314FF080425A613FE5D4F8D5
:101BF000003208209847D4F8A0314FF000425A61D3
:101C000032E5D4F8003206209847D4F8A0314FF4DA
:101C100000625A6123E5D4F8003209209847D4F8CD
:101C2000A03108225A61019A527B012A7FF40DAD3E
:101C3000F1067FF50AAD6FF304159D611A6AC2F3D0
:101C40004341022900F0FF80062949D102F00F0725
:101C500004EB8701C2F30A12D1F8C41125480968C0
:101C6000D4F8E0810E043BD5342101FB070EDEF8E9
:101C70002400A8B35FEA920C0BD04FEA8C0C002131
:101C800001E0DEF82400D8F80060465004316145D8
:101C9000F7D162451BD0D8F8008018D94FF0340E28
:101CA00063460EFB074E00264FF0FF0909FA06F1C6
:101CB00001EA0801DEF82400DFF838C0F140C15421
:101CC00001339A4206F10806F0D1DCF8A03134263F
:101CD00006FB0746F16A706A11440244F1627262BF
:101CE00045F010059D61B0E49C01FF1F90001000BD
:101CF000A0001000A001FF1F5000100060001000A5
:101D00007000100080001000A9B961F312030122D5
:101D100062F3DC4351E5A25D02F00F0204EB8202A4
:101D2000D2F8C4115BE5C26A816A436AC1628A1A49
:101D30001A444262E0E54268DAF80400C2F3C622BF
:101D4000091A02F1FF3E8E44BEFBF2F262F3DC435D
:101D500061F3120331E5D8F804105B1AC3F31203E0
:101D60004FF0010C3BE663F31200012363F3DC4008
:101D700044E608F00F0808F16A015E4F57F8211099
:101D8000C76AD1F818C05B49069708F1780851F87E
:101D900028100791816AC91B059151D001F10308F0
:101DA0001FFA8CFC4FEA9808E04544D80BFB0E4123
:101DB000B8F1000F00F09B800691CDF82490496A9D
:101DC000DDF81CC0029FDDF81890CDF820E000205F
:101DD0000968CCF80010D9F82410013004314045CE
:101DE000C9F82410F4D10698DDF820E0C06ADDF8C7
:101DF0002490029706900746BC46059F0BFB0E40B9
:101E0000BC443944C0F82CC0416288E501297FF404
:101E1000F5AD069FDAF83430B9401943CAF83410EA
:101E2000ECE5344BD3F8A4114B6B02FA0EF223EA23
:101E300002024A6382E54FEA8C010591E046B5E76C
:101E4000416A069FD8E702F00F0704EB8701C2F34F
:101E50000A10D1F8C421D4F8E0C11268254912044F
:101E60007FF53EAF342202FB071EDEF82410002966
:101E70003FF436AF5FEA90080FD04FEA880800229F
:101E800001E0DEF82410DCF800608E500432424598
:101E9000F7D1342202FB0742516A40451ED0DCF8DC
:101EA00000C01BD94FF0340E43460EFB074E0026F0
:101EB0004FF0FF0801E0DEF8241008FA06F202EA0B
:101EC0000C02F240CA540133984206F10806F2D1DE
:101ED000342202FB0742D4F8A031516A342202FBBB
:101EE00007470144FA6A79620244FA62F8E6496AED
:101EF000069F81E7A001FF1F10B5054C2046FEF7A5
:101F000013FA2046FEF77CFABDE81040FEF7BABA95
:101F1000800000201B4B984210B504461BD003F5EF
:101F20000073984217D0184B984224D003F50073E1
:101F3000984220D0154B984216D003F50073984272
:101F400012D00323E360E368DB07FCD5236C23F0A6
:101F50000F03236410BD4FF40060FEF75DFA4FF4E9
:101F60000060FEF7EDF9ECE70948FEF755FA08487E
:101F7000FEF7E6F9E5E70748FEF74EFA0548FEF7F3
:101F8000DFF9DEE70000034000000248004002489D
:101F90000001001080000010632900D90AB9012057
:101FA00070472DE9F04117460C460646FEF7D4F976
:101FB000184DA5FB0032A5FB043552096D0940F20E
:101FC000FF3E4FF0010C07FB05F5C2EB8221704686
:101FD000E046B1FBF5F39C0AB4F5806FC3F3090347
:101FE000A1EB020104D2734502D29E46A44680466C
:101FF0000138EED148F4004333617269064B013F6A
:1020000013400CF1FF3C43EA872343EA0C4373611E
:10201000BDE8F0811F85EB51EF8000FC30B4D0F8B3
:102020000851084C25F0E065C0F80851D0F8085177
:102030002C40214341EA026242EA0323C0F80831FE
:1020400030BC7047C0C0FFF830B4D0F80C51094C18
:1020500025F0E065C0F80C51D0F80C512C4044F04C
:102060008054214341EA026242EA0323C0F80C3162
:1020700030BC7047C0C0FFEFD0F80C3123F0E063F4
:10208000C0F80C31D0F80C31090641EA022223F4E1
:102090007C531343C0F80C31704700BF10B4836900
:1020A00007248C4023EA04038A401A4382615DF8C6
:1020B000044B704710B4D0F8083107248C4023EA51
:1020C00004038A401A43C0F808215DF8044B7047A6
:1020D00010B4D0F80C3107248C4023EA04038A4062
:1020E0001A43C0F80C215DF8044B70471C4BDB68A9
:1020F000D90310B51DD51B4BDB68DA072CD51A4860
:10210000184A13685B0716D4936803F07F03013302
:10211000B0FBF3F3124A1549D0681269C0B202F05D
:10212000010201300132B3FBF0F0B0FBF2F00860C5
:1021300010BD0D4BEEE7916893689468C1F303629C
:102140000132C4F30641C3F3062301FB0222B0FBB4
:10215000F2F003FB0003DDE702F0B4FAD0E700BFC2
:10216000004600501047005000366E01C0FF0320AB
:1021700010B54FF000530FCB034C84E80F0002F072
:1021800063FA02F0A3FA10BDC4FF03200C4A08B59D
:1021900013688BB1033020F003000A4918448842C9
:1021A00002D21060184608BD0CF0CCFB0C23036073
:1021B0004FF0FF33184608BD034B1360EAE700BF3A
:1021C00000D8FE1FC0FF0320000E0020704700BF94
:1021D000030A022B16D0032B09D0012B03D00020B9
:1021E000034613607047094B136012207047C0B25A
:1021F0000228F4D8064B074953F82030136031F811
:1022000010007047044B13603E20704788F30008AD
:102210006CF4000878F4000880F40008454A92F84D
:102220003E319B0710D570B54349847C8B889BB2A7
:102230009C4200D070BD4B78203B0446032BF9D85C
:10224000DFE803F0183F630370470B783A49212B0E
:10225000F0D13A4892F83E31856823F0020382F8C3
:102260003E31002DE6D0498820462B46C9B2BDE854
:10227000704018470B78212BDCD192F83E0192F880
:102280003C312F4920F002002C2582F83E0105FB4D
:10229000032202E00B78002BCCD093689B06F9D583
:1022A00000F030FCA06100F001FC207700F0FEFBA4
:1022B000607700F0FBFB214BA0771B68002B34D12B
:1022C000B8E70B78A12BB5D192F83E1192F83C31CA
:1022D00021F002012C2082F83E1100FB03229368BA
:1022E000D806FCD493689907F9D5A06900F0F4FBEF
:1022F000207F00F0C5FB607F00F0C2FBA07F00F0F4
:10230000BFFBBDE8704000F06BBB0B780A49212B86
:1023100090D192F83E31094823F0020382F83E3111
:1023200043684A88A282002B84D02046BDE87040D2
:10233000184700BF9806FF1F9004FF1F00D0FE1F24
:102340008D04FF1F38B50222002303210375437556
:102350008375C375037643768376C37603774377B5
:102360008377C3770271827201740121044600F001
:10237000DFFB01210546A01D00F0DAFB012100284A
:1023800004F10C0008BF002500F0D2FB002814BFA8
:102390002846002038BD00BF1C4B1A78042A00D004
:1023A00070478269002AFBD070B40278184902F0A5
:1023B0000F042C2622F07F0206FB041581F83C4115
:1023C00081F83D21AA68D40605D4AA68920702D5EF
:1023D0001B78042B01D070BC70478369002BFAD0A6
:1023E000037803F00F0206FB021623F07F0381F847
:1023F0003C2181F83D3133791B064CBFB38BB38947
:10240000002BE8D070BC00F0EBBA00BF8D04FF1FBA
:102410009806FF1F0C4B1B78042B01D0022070473D
:102420008369002BFAD030B40378084C03F00F0511
:1024300023F07F03084684F83C51114684F83D316F
:10244000002230BC00F0B4B98D04FF1F9806FF1FB6
:1024500008B5104B1B78042B01D0022008BD8369FE
:10246000002BFAD003780C4903F00F002C2202FB5A
:10247000001223F07F0381F83C0181F83D3113798C
:102480001B064CBF908B90890028E7D000F0A8FA7B
:10249000002008BD8D04FF1F9806FF1F08B5134BD1
:1024A0001B78042B01D0002008BD8369002BFAD0D3
:1024B00082790F4902F00F002C2322F07F0203FBE8
:1024C000001381F83D2181F83C019A689106EAD514
:1024D0001A79120605D5988B0028E5D100F054FA38
:1024E000E1E798890028DFD1F8E700BF8D04FF1FDE
:1024F0009806FF1F014B01221A707047E803FF1F67
:10250000014B01225A707047E803FF1F014B012263
:102510009A707047E803FF1F08B581200E494022DA
:1025200000F0F8FF82200D49402200F0F3FF032065
:102530000B49402200F0EEFF0A48FFF703FF48B1C5
:10254000094A0A4992F83E31042043F0010382F817
:102550003E31087008BD00BFEC03FF1FA803FF1F3A
:102560002C04FF1F6C04FF1F9806FF1F8D04FF1F24
:102570000148FFF753BE00BF6C04FF1F2D4991F8BF
:102580003E21D30700D470472B482C4B00682DE91F
:10259000F04E6FF300024FF0000A4FF00309284C91
:1025A00081F83E2183F812A083F811A083F81090DF
:1025B000026966695661E669D661A66983F80BA06F
:1025C00082B083F805A083F8069096614FF0810AE7
:1025D000266983F80CA04FF00809A3F80E90216833
:1025E000A768E56816614FF0400B266AA3F808B0AB
:1025F0004FF0020A4FF0820983F80AA00191A3F874
:1026000002B0616883F804A083F8009016629760B6
:10261000D560019B1360636A5160536200F0E2FE73
:1026200010B102B0BDE8F08E02B0BDE8F04E00F08F
:1026300065BF00BF9806FF1F34D0FE1F6C04FF1F4C
:102640000CD0FE1F264A274B106827492DE9F04E73
:102650004FF0000A4FF0030983F812A083F811A08D
:1026600083F8109002694E695661CE69D66182B0D6
:102670008E690C68966183F80BA00E6983F805A03B
:1026800083F806904FF0810A4FF00809CD688F68F3
:10269000166183F80CA00E6AA3F80E9001944FF017
:1026A000400B4FF0020A4FF082094C68A3F808B0C3
:1026B000166283F80AA0D5609760A3F802B083F889
:1026C00004A083F80090019B82E818004B6A5362D3
:1026D00000F088FE003018BF012002B0BDE8F08E87
:1026E00034D0FE1F6C04FF1F0CD0FE1F08B500F095
:1026F0000BFF30B1034B1878A0F10400B0FA80F062
:10270000400908BD8D04FF1F10B511B906242046ED
:1027100010BD0028FAD00A4601460748FFF77AFEA6
:102720000028054814BF06240024FFF791FE002866
:1027300018BF0624204610BD6C04FF1F30B583B0BF
:102740000023ADF8063011B9062003B030BD0028D3
:10275000FAD00B4A0C460321054682F83D3182F837
:102760003C11284621460DF1060200F071F80528BB
:10277000F7D000280CBF0020062003B030BD00BFFA
:102780009806FF1F38B5074C4FF40065C4F88C500D
:10279000BFF34F8FBFF36F8F0348FFF77FFEE560F6
:1027A00038BD00BF00E100E06C04FF1F00F0A6BED2
:1027B0002DE9F84F254B0C46804693F83C11914685
:1027C000002A3BD01788E41BA4B22C2606FB013656
:1027D000F4B1B368DB06FCD400F03AF9F8B1756ADD
:1027E000F0692D1AA54216D8ADB2641B1FFA84FBFE
:1027F0002C46336A08EB07012A4618440CF0E6F829
:10280000F36927441D445C46BFB2F561002CE0D15A
:102810002046BDE8F88F25464FF0000BE9E700F0B1
:10282000DFF83389C3F386139C4202DAB9F1000F53
:1028300006D100F05DF80028CAD0EAE71746C4E7E1
:10284000A9F800700520BDE8F88F00BF9806FF1FAB
:102850002DE9F84F254B0C46814693F83C119246E2
:10286000002A3BD0B2F80080C8EB0404A4B22C25A7
:1028700005FB01350CB3AB681B07FCD400F0E8F88E
:1028800010B3EE68A6421BD8B3B2E41A1FFA84FB59
:102890001C462B696969324609EB080019440CF0A3
:1028A00095F8EA682B69A044921B5C461E441FFA07
:1028B00088F8EA602E61002CDDD12046BDE8F88F53
:1028C00026464FF0000BE4E700F05EF8BAF1000F87
:1028D00006D100F00DF80028CCD0EFE79046C6E70F
:1028E000AAF800800520BDE8F88F00BF9806FF1FFA
:1028F0002DE9F843224C234D23689B6B9847A14652
:10290000804664262C2794F83C3107FB034211795A
:1029100008061AD4926892062BD42A7802F0FF0196
:1029200022B305291FD007FB03439868C0F380003A
:10293000A8B9D9F800309B6B9847804511D0731E19
:10294000DBB2CEB180461E46DDE79068C0F30010D2
:102950000028E2D192689107DFD5BDE8F883BDE891
:10296000F8833346EEE70320BDE8F8830220BDE894
:10297000F8830020BDE8F8830420BDE8F88300BF99
:102980009806FF1F8D04FF1F70B5144D95F83C315C
:102990002C2404FB0354A3689A0700D470BD2B6851
:1029A0006169DB6AA26920799847A368E060002129
:1029B0001B0702462161F1D40028EFD12389207939
:1029C000A16943F008032381238962F3451323811E
:1029D0002B68BDE870409B6A184700BF9806FF1F30
:1029E000F8B5194991F83C312C2202FB03139A687F
:1029F000D00602D49A68920700D4F8BD18891F6ADD
:102A0000124E40F0100003F1280503F12004188154
:102A1000D869A0606F6000204FF40067D861C6F8E5
:102A20008C70BFF34F8FBFF36F8F0A681879696896
:102A3000136BA26898476A68A36802441B1A6A600D
:102A4000A360F760F8BD00BF9806FF1F00E100E03B
:102A50000A4B93F83C212C2101FB02331A79120610
:102A600004D4D868003018BF01207047586ADA696A
:102A700082422CBF00200120704700BF9806FF1F34
:102A8000094A92F83C312C2101FB032202F1180380
:102A9000516A5A688A4200D3FEE7996888545A6896
:102AA00001325A60704700BF9806FF1F094B93F828
:102AB0003C212C2101FB023303F10802516801B9CA
:102AC000FEE7586993680139C05C51600133936037
:102AD000704700BF9806FF1F094A92F83C312C212D
:102AE00001FB032202F11803526A5968033A91422A
:102AF00000D3FEE79A6850505A6804325A60704713
:102B00009806FF1F094B93F83C212C2101FB02334F
:102B100003F108025168032900D8FEE75869936859
:102B20000439C05851600433936070479806FF1F02
:102B3000002942D02DE9F8434D1EE9B2204F062569
:102B400005FB01050A3500F104093E464FF02C084B
:102B50001CE019F8042C1A7139F8022C198962F357
:102B60008C11CAB242F0010219811A721A8942F01C
:102B700002021A8119F8040C020609F1060903D4AD
:102B800032689969936A9847A94513D019F8043CAB
:102B90003A6899F80010D2F81CC039F8022C18468F
:102BA00003F00F04E04708FB04630028D1D00020A5
:102BB000BDE8F8830120BDE8F8830120704700BF1D
:102BC0009806FF1F09280ED8DFE810F00A00190048
:102BD00023002A0034000D00E8000E000D00F6006E
:102BE000B74B01221A707047B64BB54AD3F8400173
:102BF00093F83A1183691170002BF4D01847B14B48
:102C0000AF4AD3F840315B6800211170002BF5D139
:102C1000E9E7AC4BD3F840311B68002BEED1E2E77B
:102C2000A84BA74AD3F840315B6801211170002BF3
:102C3000E4D1D8E770B5A24BA24C02221A702289C7
:102C400094F83E316FF30412228122896FF3C3029C
:102C5000228122896FF382022281A28E6FF30412F5
:102C6000A286A28E6FF3C302A286A28E6FF38202A7
:102C7000A28694F834206FF38203012184F83E3158
:102C8000D30784F83B1100F19F80B4F860308D4D7C
:102C90006FF30413A4F86030B4F860306FF3C3032B
:102CA000A4F86030B4F860306FF38203A4F86030A9
:102CB00094F86030DE0700F1EC80B4F88C30814D80
:102CC0006FF30413A4F88C30B4F88C306FF3C303A3
:102CD000A4F88C30B4F88C306FF38203A4F88C30F5
:102CE00094F88C30D80700F1BF80B4F8B830754D37
:102CF0006FF30413A4F8B830B4F8B8306FF3C3031B
:102D0000A4F8B830B4F8B8306FF38203A4F8B83040
:102D100094F8B830D90700F19280B4F8E430694DE6
:102D20006FF30413A4F8E430B4F8E4306FF3C30392
:102D3000A4F8E430B4F8E4306FF38203A4F8E4308C
:102D400094F8E430DA0766D4B4F810315D4D6FF3CF
:102D50000413A4F81031B4F810316FF3C303A4F8CE
:102D60001031B4F810316FF38203A4F8103194F8E5
:102D70001031DB073BD40023226884F8393184F812
:102D80003831936A207918219847D4F840315B6A2A
:102D9000002B00F09380BDE870401847494A484B2B
:102DA000D2F84011187882F83A01CA6905211970E1
:102DB000002A3FF418AF1047424BD3F840311B6A4A
:102DC000002B7FF41BAF0EE7236894F830001B6ADA
:102DD000984700287FF459AF94F8343060F300032B
:102DE00084F83430A38E60F34103A3864DE72B684B
:102DF00095F80C011B6A98470028BCD195F8103152
:102E000060F3000385F81031B5F8103160F3410329
:102E1000A5F81031AFE72B6895F8E0001B6A9847DA
:102E2000002891D195F8E43060F3000385F8E43090
:102E3000B5F8E43060F34103A5F8E43084E72B688B
:102E400095F8B4001B6A984700287FF466AF95F8A0
:102E5000B83060F3000385F8B830B5F8B83060F3E7
:102E60004103A5F8B83058E72B6895F888001B6A2D
:102E7000984700287FF439AF95F88C3060F3000351
:102E800085F88C30B5F88C3060F34103A5F88C30B0
:102E90002BE72B6895F85C001B6A984700287FF4A5
:102EA0000CAF95F8603060F3000385F86030B5F83A
:102EB000603060F34103A5F86030FEE670BD00BFEE
:102EC0008D04FF1F9806FF1F10B5084C2368802053
:102ED0005B6A0121984700B110BD236801229B6AFB
:102EE00084F83B211821BDE8104018479806FF1FC1
:102EF00070B5A24CA24ED4F840317088DA6882B026
:102F0000002385B20093019302B1904794F83E31BB
:102F10009B0707D494F83E3123F0020384F83E3136
:102F200002B070BD7378EDB20C2B16D8DFE813F049
:102F30002500BE0015009D001500D00056001500AC
:102F400083008A000D00780015008E4B1A78042A41
:102F500000F036811B78032BDCD12368874D5B6A38
:102F60008020012198470028D4D12B6801229B6A38
:102F700085F83B2118219847CCE73078804B10F03A
:102F8000030000F003811B7803F00303012B00F022
:102F9000E78033787A4A03F00303022BDDD17949C5
:102FA0009388097804299BB203D0928892B2002AB0
:102FB000D3D12C2203F00F0302FB03436F491A7A8B
:102FC000D007CAD59B680A6802A9C3F3800341F8F9
:102FD000043D0020136B022298479BE7D4F8403150
:102FE0005B69002BB9D07088B188654E80B289B218
:102FF0006A46984705460028AFD0F38800999BB2EF
:10300000984228BFF588236828BFADB21B6B2A46BB
:1030100000209847009B2D1A1844A562E06279E7CA
:10302000584B1A78042A95D17288B38814FA83F31E
:1030300083F838216EE7236853491B6B0122002077
:10304000984767E7D4F8403184F839519B6803B159
:103050009847002D54D094F83E31484DD90740F19F
:10306000A680484B04221A7054E7022D3FF475AF36
:10307000444B1A78042A67D01B78032B7FF46DAF7A
:10308000002D7FF46AAF33783D4A03F00303022B2F
:103090007FF463AF938813F0FF0F7FF45EAF238953
:1030A00043F004032381FFF70FFF33E73378344AFB
:1030B00003F00303022B27D0137813F003037FF4EC
:1030C0004CAF94F83E2163F3820284F83E2121E75D
:1030D0002C4B95B902221A702368284E9B6928460A
:1030E0000021984700287FF415AFD6F840311B69BE
:1030F000002B3FF40FAF98470CE703221A70EBE761
:10310000204B03221A7005E71E4993880978042989
:103110009BB204D0928892B2002A7FF41EAF2C2278
:1031200003F00F0302FB034314491A7AD5077FF516
:1031300014AF1A896FF382021A81B0880B68C0B28B
:103140005B6A00219847E5E6002D44D0012D7FF40D
:10315000E1AE94F83E3143F0040384F83E31D9E601
:10316000084B1B78042B7FF414AF02A923680020BE
:1031700041F8040D1B6B02229847CBE69806FF1F0F
:103180009004FF1F8D04FF1FD107FF1F94F83E31ED
:103190002268C3F380056D00EDB202A9C3F3C0033A
:1031A0002B4341F8043D136B02229847B2E62B688B
:1031B00080205B6A0121984700287FF4ABAED4E6FB
:1031C000B188236889B201F59C7121441B6B0122EF
:1031D000002098479EE6B3880A480B492C2203F04A
:1031E0000F0302FB03431A7AD2077FF55CAF1A89FB
:1031F00042F004021A810B6880885B6A0121C0B228
:10320000984787E69004FF1F9806FF1F2DE9F843B3
:10321000724C00F00F05012920F07F0094F83D71F9
:1032200094F83C8184F83D012E4684F83C5167D0E7
:103230003AD3022932D12C2303FB054303F12009A1
:103240009A6A002A40F091801879020714D1DA694D
:1032500092B16349C98889B28A420DD01B89C3F3F0
:103260008613B2FBF3F103FB112129B923680A4647
:103270001B6B984794F83C51DFF860912C2303FBBB
:10328000064600223389F26162F3041333812DB9BB
:1032900099F83B31022B78D0032B4ED084F83C8137
:1032A00084F83D71BDE8F8832C2303FB05431A899C
:1032B0006FF3C3021A81002DF0D12368484EDB6AF8
:1032C000314628460822984794F83E31082843F0B2
:1032D000020384F83E31E1D1B6F806901FFA89F96D
:1032E000B9F1000F68D03378190671D4F1882368DA
:1032F00004229B6A84F83B2189B228469847CDE78F
:103300002C2303FB054399461A8942F0200229F831
:10331000082FD9F80420DAB12C2303FB0646DFF886
:10332000BC9033896FF3C3033381002DB6D199F874
:103330003B31042B33D0052BB0D1D9F8003099F8AC
:1033400004009B6A18219847012389F83B31A5E7BF
:103350002168C9F80820CD6A187959699A69A8477F
:1033600094F83C51C9F80400D6E7216818790E6B2F
:10337000D96A03F12805B0476A68D9F808300244D1
:103380001B1A6A60C9F8083088E7D9F80030284667
:103390009B6A29469847052389F83B317EE7FFF76A
:1033A000A7FDD9F8003028461B6B29462A469847C6
:1033B000032389F83B3171E7032384F83B31FFF79E
:1033C00097FD236848461B6B49464A46984765E780
:1033D000022384F83B31FFF78BFD5FE79806FF1F60
:1033E0009004FF1F70B53C4C0546FEF785FD00219B
:1033F0004FF4A27220460BF0F4FA384B38482060A4
:1034000001260020187026722389364A626143F033
:1034100002032381238934492162402262F38C1301
:1034200023812B69D96884F83B614FF48072304660
:103430006262A26121B35A6912B39A6802B3C4F8F6
:103440004031FCF7D7FF23682849294A5B68696047
:10345000AA60284698470546A8B1FEF74DFD2368A7
:103460009B68984750B9234B4FF40062C3F88C21F6
:10347000C3F88C20BFF34F8FBFF36F8F284670BD0A
:103480000546284670BD1C4BDB68C3F30223C3F11D
:103490000701062928BF0621DBB15A1E01238B40F4
:1034A000013B03F03B0393409B00124ADBB282F8DE
:1034B0006B3323684FF400610020C2F88C11DB6984
:1034C000D16001464022984705460028C5D12846CC
:1034D00070BD1A46E2E700BF9806FF1F8D04FF1F6C
:1034E000E0F200089805FF1F9804FF1FC52B000895
:1034F0000D32000800E100E000ED00E0014B1B6828
:10350000DB6818479806FF1F014B1B68DB6B1847E9
:103510009806FF1F10F0800F10B40A4B00F00F0444
:103520004FF02C0006D100FB04335DF8044B5961C9
:103530009A61704700FB0434216262625DF8044BBB
:10354000704700BF9806FF1F014B1868FEF768B868
:1035500034D0FE1F43685B68184700BF436870B4EF
:1035600093F8294014B1042070BC704785682C7E04
:1035700004F0FF0614B1022070BC704701B10AB913
:103580000320F1E793F82B4029600121AA60EE6047
:10359000297602688CB14FF40041C2F81811D2F8B4
:1035A000081141F08041C2F8081193F82D104FF432
:1035B00080338B4093660020D6E7116C41F40051B4
:1035C0001164F2E7436870B593F82A400CB1042007
:1035D00070BD85686C7E04F0FF060CB1022070BDE2
:1035E00001B10AB9032070BD93F82C306960012144
:1035F0002A616E61697633B901680A6C42F440420F
:1036000018460A6470BD046899404FF480468A42A7
:103610002546C4F8186104462CBF01F1FF3202F1BF
:10362000FF3228461946FEF727FD2268D2F80C31F2
:1036300043F0C043C2F80C31002070BD70B58468FF
:10364000E368A26893421BD2426892F82B20054699
:10365000002A35D00068D0F81421D20403D538E010
:10366000A2689A4224D92268D15CFDF7BBFA286887
:10367000E368D0F814210133D604E360F0D570BDBF
:103680000268D2F81431190512D5416891F82B302F
:103690007BB9136C23F400531364936B1B06FCD4A7
:1036A0008A6800232376236012B1BDE8704010477A
:1036B00070BDD2F8083123F08043C2F80831ECE73E
:1036C00022680068D15CFDF78DFAE3680133E3609E
:1036D00070BD70BD436893F82C302DE9F04106466B
:1036E000856843B36C692B69006801E09C4210D087
:1036F000D0F8142112071AD4A342F7D96F68FDF746
:1037000083FA38556C692B69306801349C426C61CE
:10371000EED100236B767268D0F80C31D26823F0BA
:10372000C043C0F80C3122B190476C692B699C42B0
:1037300015D3BDE8F0816C692B699C4221D39C4272
:10374000F7D13268716800236B76136CC96823F473
:10375000404313640029ECD0BDE8F041084796E8E7
:10376000050092F82C1001221C1B02FA01F39C4266
:1037700034BF04F1FF3203F1FF32BDE8F041FEF740
:103780007BBC00686F68FDF73FFA38556C692B69A0
:1037900001349C426C61CCD1D3E700BF10B5394CE9
:1037A000394A3A480021FCF779FD20463849FDF7AF
:1037B000E7F9E36923F0070343F00303E3612046DD
:1037C000102104220123FEF729FC00210B4620468C
:1037D0000422FEF739FC236C2C482E4A23F00F03F9
:1037E00043F0020323640121FCF758FD2046102119
:1037F0000022FEF753FC204610210322FEF75AFC5C
:10380000204610210522FEF763FC132120460522E5
:10381000FEF75EFC204BDB68C3F30223C3F1070114
:10382000062928BF06214BB35A1E01238B40013BBA
:1038300003F03E0393409B00184A1749DBB24FF454
:10384000000082F857339060CB68C3F30223C3F1C2
:103850000701062928BF062193B15A1E01238B4078
:10386000013B03F03E0393409B000C4ADBB24FF058
:10387000007182F859330020916010BD1A46D4E7D8
:103880001A46EBE70000034014F5000800850248E3
:10389000F0F4000808F5000800ED00E000E100E0A9
:1038A0000148FFF7CBBE00BF4CD0FE1F0148FFF719
:1038B00011BF00BF4CD0FE1FF8B590F82630002B8A
:1038C0002FD190F8216016B11D462846F8BD044658
:1038D000006900F097FE236994F818E09F68E16999
:1038E000FA68012303FA0EF3134305466069FB608F
:1038F000FCF7F6FF236960699A6894F82530678CB5
:10390000E1684763C663116173B994F8242002210A
:103910000123016184F82630002AD6D0C3602846EE
:10392000F8BD00252846F8BD314694F82020FCF764
:10393000F9FF6069D0F8A43043F00103C0F8A43067
:10394000E3E700BF90F826304BB190F8213023B95F
:10395000426901211846D16070470020704701205C
:10396000704700BF90F821300BB1012070474169CA
:103970008A68D207F9D590F82620002AF5D00122CE
:1039800018460A61704700BFF8B590F82160002E14
:103990004AD083688B424BD84568A94248D8B1EBDE
:1039A000D53F47D90023C3F10E0225FA02F25C1C71
:1039B00091422346F7D8002E3AD10369C7691A68A5
:1039C00097F804E004F00F06A1FB0223C6F12001E2
:1039D000054603FA01F122FA06F0A6F1200264F38B
:1039E000030E084323FA02F223FA06F187F804E0F3
:1039F000104313A3D3E900230AF0CEFC80B20128C0
:103A000088BF00F1FF30E4B2688404F00F016869F8
:103A1000FCF780FF2A696B69688C9268E9685863D3
:103A20000020D8631161F8BD43699B68DB07B0D5FE
:103A30000120F8BD0024002EBFD0F9E7AFF30080CD
:103A400000E1F5050000000090F8213033B942692B
:103A5000D2F8B03043F00103C2F8B030704700BF75
:103A600090F826304BB190F8213023B942690221F9
:103A7000184611617047002070470120704700BF51
:103A8000204BF0B4DB68047841788778C3F30223D5
:103A9000C3F10705062D28BF06254BB35E1E012284
:103AA000B240013A02EA07030122AA40013A0A4061
:103AB00061B2B240002943EA02031BDB01F160421C
:103AC00002F561429B00DBB282F80033C37863B138
:103AD000027853B2002B08DB02F01F025B090121C0
:103AE000094801FA02F240F823200020F0BC704798
:103AF0001E46D9E7054A04F00F049B002244DBB2BE
:103B00001376E3E700ED00E000E100E0FCEC00E00C
:103B100028B108B543685B689847002008BD0120BC
:103B2000704700BF2DE9F8430C46416891F8241016
:103B300005469DF8240011B10220BDE8F883164621
:103B4000AF6814B997F8282052B34BB3089A3AB328
:103B50000022BA6197F8262002F0FF08002AEBD174
:103B60003B604FF00109089BC7F80C80F8614FF0EB
:103B700080412868BB6087F82690FCF7DFFF286843
:103B800097F824201021FEF789FA64B997F82410D9
:103B90002A684FF480338B4020469366BDE8F88353
:103BA0000120BDE8F883AA68286892F8283003F05D
:103BB000FF0463B982F82890C36C43F00403C36424
:103BC000B1B22246FCF72CFF2046BDE8F883C36C57
:103BD00043F00803C364B1B24246FCF739FF4046E4
:103BE000BDE8F88370B506460068B468836C13F4CA
:103BF000B17F63D1A3694BBB736893F82650002D46
:103C000000F08B80E168A2689142C0F0C08093F818
:103C10002820D0F8081153B221F08041002BC0F8C1
:103C2000081109DB5B09603302F01F020121834D9B
:103C300001FA02F245F82320D0F814311D05FBD516
:103C400094F82830002B40F0CA8070BD736893F858
:103C50002620002A7FD093F82730002B00F0958093
:103C6000012101FA02F59940A94228BF2946CDB2A7
:103C7000D0F8083123F08043C0F80831024608E04C
:103C8000FCF726FFE3680133E360E368AB426FD2E1
:103C90003268D2F8143113F4805F104668D1E368BB
:103CA000A1688B4264D2E36801339942E8D1236A68
:103CB000012BE5D11046FCF721FFE3E7D0F80821FE
:103CC000736822F08042C0F80821026C996922F4DE
:103CD00000520264846C39B1A50605D5C36C43F06B
:103CE0002003C36488477368DA6942B1610606D568
:103CF0003168CB6C43F04003CB64904773681B6A18
:103D0000002BA2D014F4817F9FD03168CA6C42F49A
:103D10008072CA64BDE870401847E268A3689A429E
:103D200069D394F82830002B8FD04FF08041FCF7F6
:103D300015FFE369012B6AD03268936B1B06FCD434
:103D400073681B69002284F82620002B3FF47DAFA6
:103D5000BDE870401847E368A2680133934202D17E
:103D6000236A012B50D0FCF7B3FEE3680133E36014
:103D7000B368DA689B689A427FF467AF30684FF0A7
:103D80008041BDE87040FCF7E9BE022570E74FF0C6
:103D90008041FCF7E3FE3068D0F8083143F08043FF
:103DA000C0F80831D0F81431DA043FF54EAFE368BB
:103DB000A2689A4205D83FE0E268A3689A42BFF43D
:103DC00044AFE3682268D15CFCF770FEE3683068BA
:103DD0000133E360D0F81431DB04EDD570BD4FF052
:103DE0008041FCF7BBFEE369012B1AD03268936B6C
:103DF0001906FCD4A4E7E3682268D15CFCF756FE00
:103E0000E3680133E36070BDFCF778FEADE730682E
:103E100084F82850C36C43F01003C364FCF730FEF1
:103E20008AE73068002384F82830C36C43F010031D
:103E3000C364FCF725FED9E770BD00BF00E100E0D8
:103E40002DE9F04745689DF824E00E4695F82510C9
:103E500004469DF8280011B10220BDE8F087A7684C
:103E60009046B9461EB997F82820002A55D0002B55
:103E700053D0089A002A50D097F8272002F0FF0C60
:103E8000002AE9D195F827A008997B600122BA6140
:103E9000396187F826203B6087F82720B960C7F88A
:103EA00014C0C7F81CE03862C7F80CC0BAF1000FA4
:103EB00036D123681A6C42F440421A64002E00F096
:103EC0009C8095F82420013A012A0BD918464FF01E
:103ED0008041FCF733FE97F8242020681021FEF77C
:103EE000DDF8A76897F82830002B40F0FA802068AA
:103EF000012287F82820C36C43F004031FFA88F1DD
:103F0000C364FCF78DFD636893F82430013B012BFB
:103F100040F2F2800020BDE8F0870120BDE8F08784
:103F200095F8263020684FF48045C0F8185102FA01
:103F30000AF5002B74D09A40D3B20899EAB28A42AB
:103F400028BF0A469A4228BF1A46013A5146FEF750
:103F500093F82068D0F80C3143F0C043C0F80C311E
:103F60006368002E5ED093F82430013B012B0AD900
:103F70004FF08041FCF7E2FD206897F824201021E3
:103F8000FEF78CF82068A36893F82820002A40F0F8
:103F9000DC80012283F82820C36C43F004031FFA5D
:103FA00088F1C364FCF73CFD636893F82420022A7F
:103FB000B0D193F82630002B00F0D1802268D2F8DF
:103FC0001431DB04A6D409E0FCF782FDFB6822680B
:103FD0000133FB60D2F81431DE049BD4FB68B9686E
:103FE0008B4297D2FB68013399421046ECD13B6A71
:103FF000012BE9D1FCF782FDE8E795F82620002A9D
:1040000041D1FA6808990132914202D1012800F0A9
:10401000B2801846FCF75CFDFB680133FB6079E772
:1040200013468AE793F82630002B7BD0D0F808316E
:1040300023F08043C0F80831D0F81431DD043FF597
:1040400069AFFB68B9688B4238BF024610D361E79D
:10405000FCF73EFDFB6822680133FB60D2F81431A7
:10406000D9043FF557AFFB68B9688B42BFF452AF34
:10407000FB68013399421046EAD13B6A012BE7D134
:10408000FCF73CFDE6E7D3F80821216822F08042E6
:10409000C3F80821D1F81431DA043FF53BAFFB68CF
:1040A000089A9A4288BF134610D833E7FCF710FDF0
:1040B000FB6821680133FB60D1F81431DB043FF564
:1040C00029AFFA68BB689A42BFF424AFFA6801329C
:1040D00093420846EAD13B6A012BE7D1FCF70EFD7B
:1040E000E6E72068C36C43F008031FFA88F1C36455
:1040F0000122FCF7ADFC06E7D9F80C30D9F808200E
:104100000133934203D1D9F82030012B37D02068F6
:10411000FCF7DEFCD9F80C300133C9F80C30002074
:10412000BDE8F087FA68BB689A42BFF4F3AEFA685C
:104130000132934202D13B6A012B1DD0C36C43F480
:104140007243C364FCF7C4FC66E7C36C43F0080326
:104150001FFA88F1C3640122FCF77AFC24E7FB68AC
:10416000BA680133934202D13B6A012B0BD020681D
:10417000FCF7AEFC50E71846FCF7C0FC4CE72068A3
:10418000FCF7BCFCC6E72068FCF7B8FC44E700BFBE
:104190002DE9F041846894F82730002B40D0436823
:1041A00093F82730064663BB006865696768FCF7CB
:1041B000BBFC78556369226901336361636993428B
:1041C00080F0AA80E268A3689A4229D2E268013BA3
:1041D0009A4200F0E5803068FCF77AFCE36801332E
:1041E000E360BDE8F0816769D4F80480FCF79CFCCB
:1041F00008F80700636920690133636163698342DA
:1042000010D03368D3F8142112F008051846EAD00C
:10421000206961698142024611D36369934259D092
:10422000BDE8F081336884F82750D3F80C2122F0E0
:10423000C042C3F80C21616981420246EDD2726826
:10424000656992F8271092F826E0012202FA01F738
:10425000451BBEF1000F02D002FA0EF2D2B2F8B244
:10426000A84228BF2846824228BF0246013A184683
:10427000FDF702FF736893F82620002A60D093F8B8
:104280002710012303FA01F59340AB4228BF2B46C8
:10429000DDB2002708E0FCF71BFCE3680137FAB247
:1042A00001339542E36049D93268D2F8143113F4EE
:1042B000805F104642D1E368A1688B423ED2E3683A
:1042C00001339942E7D1236A012BE4D11046FCF770
:1042D00015FCE2E73068D0F80C3123F0C043C0F899
:1042E0000C31036C23F44043036494F82830002B12
:1042F00096D0B468E369012B2FD0836B1906FCD4E8
:1043000073685A69002384F8273084F82630002A1D
:1043100086D0BDE8F04110473068036C23F4404379
:10432000036494F82830002B3FF47AAFB468E36953
:10433000012B20D0836B1B06FCD4E1E722696CE7DC
:10434000E368A2680133934223D03068FCF7C0FBD6
:10435000E36822690133E3605FE7836B1D06FCD4E9
:10436000002384F82830C36C43F01003C364FCF7C7
:1043700087FB3068C1E7836B1A06FCD4002384F8FE
:104380002830C36C43F01003C364FCF779FB30683A
:10439000D0E7236A012BD8D13068FCF7AFFBD7E711
:1043A000236A012B7FF417AF3068FCF7A7FB15E7F2
:1043B000436810B5044693F8240050B110F1FF3063
:1043C00018BF01202368DA6C02210A43DA64996677
:1043D00010BD93F82620A36883F82600186083F8A0
:1043E000280052B12368D3F808214FF4004122F08D
:1043F0008042C3F80821C3F8181120684FF08041AB
:10440000FCF7ACFB0020DDE7426808B592F82530E8
:1044100023B113F1FF3018BF012008BD92F8271017
:10442000826882F82730536082F8263082F828307C
:10443000026851B9136C23F44043136400684FF0D1
:104440008041FCF78BFB002008BDD2F80C3123F033
:10445000C043C2F80C31F1E708B506480F2100222D
:10446000FCF77CFA04480D210022BDE80840FCF767
:1044700075BA00BF008302480080024808B50648AC
:104480000F21D022FCF76AFA04480D21D022BDE8A2
:104490000840FCF763BA00BF00830248008002486E
:1044A00010B54A4C4A492046FCF77CFAE36923F0F0
:1044B0000703E361236A23F0070343F00103236248
:1044C000E36943F02003E361E36943F04003E36100
:1044D000236A43F020032362236A43F040032362EC
:1044E0002046012320210522FDF798FD20461021BA
:1044F0000122FDF7DFFDD4F80831C4F80831204669
:104500001F2300210522FDF79FFD204610210022D8
:10451000FDF7DEFD204613210022FDF7D9FDD4F87A
:104520000C3143F0C043C4F80C3102222046102164
:10453000FDF7B4FD20464FF0B071FCF7FFFA236C95
:104540002448254A23F00F0343F0040323640F217A
:10455000FBF7A4FE0D212148214AFBF79FFE214BCA
:10456000DB68C3F30223C3F10701062928BF062134
:1045700043B35A1E01238B40013B03F03C0393409D
:104580009B00194A1749DBB24FF0006082F85B3399
:104590009060CB68C3F30223C3F10701062928BF4B
:1045A00006218BB15A1E01238B40013B03F03C03D3
:1045B00093409B000C4ADBB24FF0806182F85A3383
:1045C000916010BD1A46D5E71A46ECE70002024892
:1045D0006CF500080083024828F5000800800248B6
:1045E00034F5000800ED00E000E100E00148FFF7CD
:1045F000F9BA00BFE4D0FE1F0148FFF7C9BD00BFF4
:10460000E4D0FE1F437B0BB10020704710B5044679
:104610008068217BFCF720F9A268D368012143F46C
:104620008073D3600020617310BD00BF10B50446D5
:10463000021D217C0068FBF731FE2068217C627C32
:10464000FCF7A0F9002010BD184B194AD8684FF6A6
:10465000FF0101400A43DA6072B6164A9A60BFF35E
:104660004F8F62B6D3F88820134842F4700241F2AB
:104670001401C3F88820425822F00F0242F00402CD
:1046800042505A6922F010025A615A6922F0080217
:104690005A615A6A22F480325A625A6A22F400320B
:1046A0005A625A6A22F480225A62704700ED00E092
:1046B0000001FA05000000080010005801230370F3
:1046C0000020704700487047001BB70030B5114DFF
:1046D0000FCD87B001AC0FC42B68236001A8FBF796
:1046E000B3FF0020FBF758FE0020FBF741FE04203B
:1046F000FBF762FE20210120FBF79AFE0020FBF76A
:1047000041FE0120FBF76CFE0120FBF75FFE07B0C6
:1047100030BD00BF9CF5000808B51948FFF7CEFF73
:1047200000B108BD1748FFF7F3F90028F9D1164882
:10473000FFF77CFF0028F4D11448FFF777FF00282B
:10474000EFD11348FDF77EFF0028EAD11148FEF7AC
:1047500001FF0028E5D11048FFF7AEF80028E0D1AE
:104760000E48FFF78DF90028DBD10D48FFF788F9D7
:104770000028D6D10B48BDE80840FFF79DB800BF20
:104780004CD8FE1FE4D0FE1F74F5000888F5000821
:1047900004D8FE1F4CD0FE1F58D0FE1F24F5000881
:1047A00020F5000880D0FE1F002070472DE9F04F53
:1047B000ADB00E4601A892461D46BDF8D880BDF8A2
:1047C000E070BDF8E84006F0C9FEC6B1BDB1379B48
:1047D000ABB1399B9BB108F1200909EB0703802B92
:1047E00010DD0CAD042401A806F0D2FE28460021FD
:1047F00080220AF0F6F820462DB0BDE8F08F0CAD0F
:104800000124F0E7062006F09BFE29468346424637
:1048100014A80CAD0AF0DAF837993A4605EB09000E
:104820000AF0D4F801A85946012206F0CBFE002870
:10483000D8D13146524601A806F0E8FE0028DFD163
:1048400008EB0706B6B214A9324601A806F0D6FF57
:104850000028D5D101A8294606F0E4FF0028CFD1D1
:10486000002C42D0203604F01F08002714E04346F5
:10487000B8F1000F0CD05A1E002B399B92B202F1F6
:10488000010203EB070008BF012204A90AF09EF809
:104890001FFA89F7BC4228D901A806F0FBFFF8B936
:1048A00001A82946324606F0A9FFC8B901A804A903
:1048B00006F0B8FFA0B901A806F0ECFF80B901A886
:1048C0002946202206F09AFF50B901A8294606F091
:1048D000A9FF28B907F12009A145C8DC2023CAE7B0
:1048E000BC4294BF002401247DE700247BE700BF85
:1048F0002DE9F04F99B00AA8279DBDF88C90BDF81E
:1049000094A09DF898700E4690461C4606F0D8FC80
:1049100065B15EB1229B4BB1249B3BB134B12246C1
:104920000AA80221802306F0CFFC38B101240AA88E
:1049300006F0F0FC204619B0BDE8F08F249B0296EB
:104940000DF1180B8DE80804039505974B46CDF83B
:1049500010B00AA84146229A06F0E8FC0446002856
:10496000E4D105EB080059463A460AF02FF8DEE795
:104970002DE9F04794B006A8219DBDF87490BDF8CC
:104980007CA09DF880800C4617461E4606F098FCD9
:1049900065B15CB11C9B4BB11E9B3BB136B132463D
:1049A00006A80221802306F08FFC38B1012406A856
:1049B00006F0B0FC204614B0BDE8F0871E9A0294C1
:1049C000C8EB070163188DE8040404930395CDF840
:1049D00014804B4606A81C9A06F0B4FC041C18BFB1
:1049E0000124E4E730B1036823B1197C1A6801237C
:1049F0008B405360704700BF38B103682BB1197CFE
:104A00001A684FF480338B405360704708B5054BEC
:104A10001B680021DA6898689047034B00221A60EF
:104A200008BD00BF50D8FE1F54D8FE1F08B5054B67
:104A30001B680021DA6898689047034B00221A60CF
:104A400008BD00BF50D8FE1F54D8FE1F38B5124D08
:104A50002B681C68A36893F82620A2B993F8273026
:104A600043B92B680121DA68986890470B4B002204
:104A70001A6038BD2046FFF7C7FCA26892F82730BD
:104A8000002BFBD1EDE72046FFF792FCA36893F8DB
:104A90002620002AFBD1E1E750D8FE1F54D8FE1F84
:104AA00038B5124D2B681C68A36893F82620A2B96C
:104AB00093F8273043B92B680121DA68986890474A
:104AC0000B4B00221A6038BD2046FFF79DFCA26800
:104AD00092F82730002BFBD1EDE72046FFF768FC6A
:104AE000A36893F82620002AFBD1E1E750D8FE1FE7
:104AF00054D8FE1F38B5124D2B681C68A36893F874
:104B00002620A2B993F8273043B92B680121DA682F
:104B1000986890470B4B00221A6038BD2046FFF77B
:104B200073FCA26892F82730002BFBD1EDE72046FA
:104B3000FFF73EFCA36893F82620002AFBD1E1E7AB
:104B400050D8FE1F54D8FE1F002070470020704729
:104B5000F0B5154D2F6883B0044637B1A068E368FF
:104B600002219847022003B0F0BD28680130286078
:104B70002E68012EF2D194F804C0DFF830E02068EE
:104B80000B468DE8440031464FEA4C02CEF8004017
:104B9000FEF7C8FF0028E6D0A068E36831469847D2
:104BA0002F603046DFE700BF54D8FE1F50D8FE1FED
:104BB000F0B5154E376885B0044637B1A068E36894
:104BC00002219847022005B0F0BD30680130306006
:104BD0003568012DF2D194F804C0DFF830E0206888
:104BE00002958DE824000B464FEA4C022946CEF888
:104BF0000040FFF725F90028E5D0A068E3682946C2
:104C0000984737602846DEE754D8FE1F50D8FE1F6D
:104C100010B50B4C216831B1C36813B18068022113
:104C20009847022010BD2368013323602368012BBD
:104C3000F2D1C3680BB1806898470020206010BD96
:104C400054D8FE1F014B00225A71704728D1FE1F15
:104C5000014B00221A71704728D1FE1F08B5036866
:104C60000BB1002008BDFDF7A1FD20B9FDF73EFD09
:104C70000028FBD0F5E7012008BD00BF38B5044689
:104C8000006860B101236371FEF768FC28B963799D
:104C900003F0FF00002BFAD138BD80B238BD0846C2
:104CA00091B2FDF731FD044608B1012038BD02483C
:104CB000FDF772FB204638BD6C04FF1F38B5044673
:104CC000006860B101232371FEF77CFC28B92379C9
:104CD00003F0FF00002BFAD138BD80B238BD084682
:104CE00091B2FDF72BFD044608B1012038BD024802
:104CF000FDF752FB204638BD6C04FF1F222838B553
:104D0000134619D033280ED0112801D0012038BD08
:104D1000402AFBD8094D0024A81C6A702C7009F0A9
:104D200055FE204638BD064C63701D0AA01C257038
:104D300009F04CFE002038BD024CF5E738D1FE1FCB
:104D40002008FF1FDC07FF1F222838B514461DD09E
:104D500033280ED0112803D000231380012038BD42
:104D60000B4A1578537843EA0525402D06D90120D2
:104D700038BD084A1578537843EA05250846911C42
:104D80002A4609F023FE2580002038BD024AF1E7BB
:104D900038D1FE1F2008FF1FDC07FF1F08B503786E
:104DA00003B108BD012341600370826004490548D6
:104DB000FEF7EAFD0348BDE80840FEF7C3BD00BFAB
:104DC000A086010080D0FE1F00230370704700BF43
:104DD000A8B1A1B138B50B4C23780BB1094838BD47
:104DE00003460A460125084908486360A260257009
:104DF000FEF7CAFD0548FEF7A5FD024838BD01488B
:104E0000704700BF58D8FE1FA086010080D0FE1F4B
:104E100010B50848FEF718FE0648FEF7A3FD054842
:104E2000FEF71EFE044A53681BB19068BDE81040AF
:104E3000184710BD80D0FE1F58D8FE1F10B5074C74
:104E400041606421826001FB03F12046FEF79CFD76
:104E50002046BDE81040FEF775BD00BF80D0FE1FA4
:104E6000704700BF704700BF09F062BD09F096BDF2
:104E700009F0ACBD09F0B5BD10B5064C2046FEF7F3
:104E8000E3FD2046FEF7ECFD034A1368013313608F
:104E900010BD00BF58D0FE1F68D8FE1F024B186817
:104EA000421C1A60704700BF6CD8FE1F014B186887
:104EB000704700BF68D8FE1F034A116813685B1A69
:104EC0008342FBD9704700BF68D8FE1F00230384CC
:104ED000C3698069184700BF012905D0022902D1A2
:104EE00080F823207047704780F82220704700BF69
:104EF000F8B5D9B10D460646242101201746FFF723
:104F0000B3FF044690B100230122C56187610B49BC
:104F100084F823203046238484F82230224604F08B
:104F20005DFA0546606120B12046F8BD00242046A8
:104F3000F8BD2046FFF79AFF2C46F5E7CD4E000856
:104F400038B580B1038C012B03D140F205352846DA
:104F500038BD0446406904F0DDFA05462046FFF7F7
:104F600085FF284638BD40F20335284638BD00BFCE
:104F700068B170B5044640690D4640B3238C012BDF
:104F800008D140F20530002384F8223070BD40F291
:104F900003307047012694F822102684002204F082
:104FA00011FA606994F82310324604F00BFA606934
:104FB0009DB93321022204F005FA294660690022D6
:104FC00004F0CEFA0028DED000232384DBE70023A0
:104FD00084F8223040F2033070BD1121022204F027
:104FE000F1F9EAE768B170B5044640690D4640B38F
:104FF000238C012B08D140F20530002384F82230A5
:1050000070BD40F203307047012694F822102684C8
:10501000002204F0D7F9606994F82310324604F0B6
:10502000D1F960699DB93321022204F0CBF92946F8
:105030006069002204F0A6FA0028DED00023238451
:10504000DBE7002384F8223040F2033070BD2221D8
:10505000022204F0B7F9EAE7E0B12DE9F041154684
:10506000426982B004466AB163B1089A52B1028CB7
:10507000012A12D140F20530002384F8223002B018
:10508000BDE8F08140F20330002384F8223002B002
:10509000BDE8F08140F2033070474FF001080E4642
:1050A000A0F82080002114220F460193FFF7E2FEB2
:1050B000089B26806580A7721A88019B2361089B44
:1050C000A280E3603A46606994F82210E780278165
:1050D00004F078F94246606994F8231004F072F9FC
:1050E0006069A17A224604F061FA0028CCD02784B6
:1050F000CAE700BFD8B12DE9F0411546426982B038
:10510000044662B15DB153B1028C012A12D140F262
:105110000530002384F8223002B0BDE8F08140F26F
:105120000330002384F8223002B0BDE8F08140F261
:10513000033070474FF001080E46A0F82080002190
:1051400014220F460193FFF795FE019B84F80A8015
:10515000268067801A88A280E3603A46606994F8E6
:1051600022102561E780278104F02CF9424660690E
:1051700094F8231004F026F96069A17A224604F01D
:1051800015FA0028CDD02784CBE700BF2DE9F043E6
:1051900083B012F0BF061446BDF82C7004D040F264
:1051A000033003B0BDE8F08305460028F7D042691C
:1051B00062B10A9A52B1028C012A0AD140F205303A
:1051C000002385F8223003B0BDE8F08340F20330BD
:1051D000F6E7012202848846142231460193FFF744
:1051E00049FE0A9A019B686995F82210022C08BFB3
:1051F0001678AE7308BF00224FF00009AA606B80DA
:105200004A46A5F80080AF806C7385F80C90A5F82D
:10521000069004F0D7F8686995F82310012204F08D
:10522000D1F8214668692A4604F0D4F90028C7D08D
:10523000A5F82090C4E700BFD0B12DE9F041154694
:10524000426982B004465AB155B1028C012A12D18A
:1052500040F20530002384F8223002B0BDE8F0812E
:1052600040F20330002384F8223002B0BDE8F08120
:1052700040F20330704701270E46078400211422B4
:1052800088460193FFF7F6FD019BA38042466069C3
:1052900094F82210277367732680A560A4F8028013
:1052A000A4F8068004F08EF83A46606994F823105A
:1052B00004F088F86069617B224604F08BF90028CD
:1052C000C8D0A4F82080C5E7002837D02DE9F041E8
:1052D00015464269044652B34DB31E46038C012B5A
:1052E0002FD04FF001080F46A0F820800021142293
:1052F000FFF7C0FDE771606994F82210002204F006
:1053000061F800274246606994F8231004F05AF8C7
:105310002560A680A7716069E179224604F0EEF964
:1053200038B1002384F822302784BDE8F08140F2B0
:105330000330002384F82230BDE8F08140F20330CE
:105340007047002384F8223040F20530BDE8F08138
:1053500038B5044698B1406988B181B1238C012BDE
:1053600010D0012502232160A2802584A371E17958
:10537000224604F0C3F938B10023238438BD40F23B
:10538000033038BD40F2053038BD00BF10B50446CB
:10539000A0B1406990B1238C012B0CD00123216076
:1053A000A2802384A371E179224604F0A7F920B1F9
:1053B0000023238410BD40F2053010BD40F20330BD
:1053C00010BD00BF78B12DE9F84343690446002BB6
:1053D00038D0038C012B09D140F20530002384F82A
:1053E0002230BDE8F88340F2033070474FF00108E7
:1053F0000E4600210D461746A0F8208014224FF0DB
:105400000209FFF737FD2A46606994F82210A4F8D4
:105410000480A7732680A56065802573E58084F8E5
:105420000D9003F0CFFF4246606994F8231003F01B
:10543000C9FF49466069224604F0CCF80028CDD067
:105440002584CBE7002384F8223040F20330BDE806
:10545000F88300BF00238385836A406A184700BF32
:10546000012905D0022902D180F82F20704770470A
:1054700080F82E20704700BFF8B5D9B10D4606461A
:10548000302101201746FFF7EFFC044690B10023BE
:105490000122856247620B4984F82F203046A3859C
:1054A00084F82E30224603F099FF0546206220B191
:1054B0002046F8BD00242046F8BD2046FFF7D6FC64
:1054C0002C46F5E75554000838B580B1838D012B83
:1054D00003D140F20545284638BD0446006A04F071
:1054E00019F805462046FFF7C1FC284638BD40F2B2
:1054F0000345284638BD00BFB8B12DE9F041154637
:10550000026A82B004465AB155B1828D012A0FD188
:1055100040F20540002384F82E3002B0BDE8F0814F
:1055200040F2034002B0BDE8F08140F20340704712
:105530004FF001080E46A0F82C80002120220F46D3
:105540000193FFF797FC019B23803A46206A94F869
:105550002E106560A760678003F034FF4246206A22
:1055600094F82F1003F02EFF3146206A224604F0F3
:1055700045F80028CED0A785CCE700BFB0B1036ABC
:105580002DE9F04104466BB161B1838D91F808803B
:10559000012B0D460DD140F20540002384F82E303A
:1055A000BDE8F08140F20340BDE8F08140F20340E5
:1055B00070470127878500212022FFF75BFC206AC6
:1055C00094F82E100022002603F0FCFE3A46206AD2
:1055D00094F82F1003F0F6FE2776A5604146267357
:1055E000E661666026606661206A224604F070F813
:1055F0000028D2D0A685D0E7D8B12DE9F047056ABA
:105600009DB191B18BB11E46838D91F80890D1F870
:1056100004A0012B054617460C460DD140F205406B
:10562000002385F82E30BDE8F08740F20340BDE846
:10563000F08740F2034070474FF00108A0F82C803B
:1056400000212022FFF716FC286A95F82E10002270
:1056500003F0B8FE4246286A95F82F1003F0B2FE18
:105660000023022285F81880AC60C5F81CA02A73BC
:105670006B602B606B6167B912232E602B734946F8
:10568000286A2A4604F024F80028C9D00023AB85F4
:10569000C6E76E60F3E700BFD0B12DE9F843046AB6
:1056A00094B189B182B1838D91F80880D1F80490CA
:1056B000012B054616460C460DD140F2054000234D
:1056C00085F82E30BDE8F88340F20340BDE8F8834A
:1056D00040F2034070470127878500212022FFF711
:1056E000C9FB286A95F82E10002203F06BFE3A469B
:1056F000286A95F82F1003F065FE00270323AC609D
:10570000C5F81C906E6141462B736F602F602F7639
:10571000286A2A4603F0DCFF0028D0D0AF85CEE708
:10572000C0B12DE9F041056A85B17BB1069D6DB12F
:105730001C46838D012B054617460E460DD140F2BF
:105740000540002385F82E30BDE8F08140F203408B
:10575000BDE8F08140F2034070474FF00108A0F827
:105760002C8000212022FFF785FB286A95F82E1057
:10577000002203F027FE4246286A95F82F1003F016
:1057800021FE0023069A85F80C806A61AB60EB610C
:105790006B602B602B7667B911232C602B7331461D
:1057A000286A2A4603F094FF0028CAD00023AB855C
:1057B000C7E76C60F3E700BFE0B1F0B51646026AD8
:1057C00083B004467AB1099A6AB1089A5AB10A9A22
:1057D0004AB1828D012A10D140F20540002384F89D
:1057E0002E3003B0F0BD40F20340002384F82E3089
:1057F00003B0F0BD40F203407047012787852022A7
:105800000D4600210193FFF735FB019B63700A9B56
:105810002361206A94F82E102670002203F0D2FD36
:105820003A46206A94F82F1003F0CCFD019B63B92F
:10583000089B1B886380099BE3600A9B23612946C0
:10584000206A224603F01EFFCFE7089B6360F2E761
:10585000E0B1F0B51646026A83B004467AB10D464F
:1058600069B1089A5AB1099A4AB1828D012A10D1B8
:1058700040F20540002384F82E3003B0F0BD40F222
:105880000340002384F82E3003B0F0BD40F2034003
:10589000704701278785002120220193FFF7EAFA4C
:1058A000019BA381089B6360099BA360206A94F815
:1058B0002E1025600022A67303F084FD3A46206A6C
:1058C00094F82F1003F07EFD206A1121224603F088
:1058D000A9FE0028D5D00023A385D2E72DE9F04307
:1058E00083B0BDF828709DF82C60B0B19046026A74
:1058F000044652B10D4641B13BB10C9A2AB1828D9A
:10590000012A0FD140F2054001E040F2034000239C
:1059100084F82E3003B0BDE8F08340F2034003B0BA
:10592000BDE8F0834FF00109A0F82C90002120225F
:105930000193FFF79FFA206A94F82E10002203F0DB
:1059400041FD4A46206A94F82F1003F03BFD019B6D
:10595000A360256084F80480A781A6730C9B56B1D0
:105960002361206A1121224603F078FE0028CED060
:105970000023A385CBE71B88A382F2E738B58369B0
:1059800004460D460BB1C069984794F82830A585A8
:105990000422012B84F8292003D115B9022384F8AD
:1059A000283038BD10B590F82E30022B04460BD0AD
:1059B0009BB990F82A30B22B17D0B32B3BD0B12B28
:1059C00026D04FF4817010BD90F82A30B22B0FD042
:1059D000B32B30D0B12BF4D11DE0012380F8AD31D1
:1059E0001849BDE8104001F0B9BDA068FEF7FAFF04
:1059F000E068FEF7F7FFB32384F82A30D4F8D00428
:105A00001149224642F6E063FFF718FA002010BD64
:105A1000A068FEF7F1FFE068FEF7EEFFB22384F81E
:105A20002A30D4F8D004084922464FF4FA63FFF72D
:105A300005FA002010BD20460249BDE8104001F0E3
:105A40008DBD00BF7D590008A559000810B590F81C
:105A500028300422012B82B0044680F8292006D089
:105A6000A36993B1E06902B0BDE81040184700692E
:105A70000191FFF76BF8A068FEF7BEFFE068FEF744
:105A8000BBFFA3690199002BECD102B010BD00BF90
:105A900038B590F82930032B02D14FF4817038BD0E
:105AA00003690446B12280689C600025012384F8C4
:105AB0002A2084F82F3084F8283084F82E50FEF7FE
:105AC0009BFFE068FEF798FFB22384F82A30D4F8F1
:105AD000D004054922464FF4FA63FFF7AFF90323D8
