:020000040800F2
:1000000030860020F90200080503000805030008F7
:1000100005030008050300080503000800000000B0
:1000200000000000000000000000000005030008C0
:100030000503000800000000050300080503000890
:100040000503000805030008050300080503000870
:100050000503000805030008050300080503000860
:100060000503000800000000000000000000000080
:100070000503000800000000050300080503000850
:100080000503000805030008050300080503000830
:100090000503000805030008050300080503000820
:1000A0000503000805030008050300080503000810
:1000B0000503000805030008050300080503000800
:1000C00005030008050300080503000805030008F0
:1000D00005030008050300080503000805030008E0
:1000E00005030008050300080503000805030008D0
:1000F00005030008050300080503000805030008C0
:1001000005030008E50D00080503000805030008C5
:10011000050300080503000805030008050300089F
:1001200005030008050E0008050300080503000884
:10013000050300080503000805030008050300087F
:10014000050300080503000805030008050300086F
:10015000050300080503000805030008050300085F
:10016000000000000000000000000000000000008F
:10017000050300080503000805030008050300083F
:10018000050300080503000805030008050300082F
:10019000050300080503000805030008E12D000819
:1001A00005030008ED2D0008F92D0008052E0008B4
:1001B00005030008050300080503000805030008FF
:1001C00005030008050300080503000805030008EF
:1001D00005030008050300080503000800000000EF
:1001E000050300080503000805030008B124000802
:1001F00005030008000000000503000800000000DF
:1002000000F002F800F068F80AA090E8000C8244C0
:100210008344AAF10107DA4501D100F05DF8AFF29D
:10022000090EBAE80F0013F0010F18BFFB1A43F0D4
:10023000010318474CE400006CE400000A444FF04E
:10024000000C10F8013B13F0070408BF10F8014B35
:100250001D1108BF10F8015B641E05D010F8016B7A
:10026000641E01F8016BF9D113F0080F1EBF10F8DE
:10027000014BAD1C0C1B09D16D1E58BF01F801CB01
:10028000FAD505E014F8016B01F8016B6D1EF9D584
:100290009142D6D370470000002300240025002699
:1002A000103A28BF78C1FBD8520728BF30C148BFD9
:1002B0000B607047642900F06D81732900F0E584BC
:1002C000002070471FB50CF037FD9DE8030000F0DB
:1002D0001DFC1FBD10B510BD00F002FD1146FFF75B
:1002E000F1FF07F065FC00F020FD03B4FFF7F2FF1B
:1002F00003BC00F051FD0000DFF818D0064880472D
:1003000006480047FEE7000005480649064A074B35
:1003100070470000308600207D20000801020008A0
:1003200030460020308600203066002030660020F5
:1003300070B5A0FB0140B4F1805170F1000024BF02
:10034000002070BD204600F007F805001CBF2146C4
:1003500000F033FB284670BD70B5064600F0BAFBCE
:10036000056806F10B0020F00704B4429CBF002092
:1003700070BD2B466A68BAB11068A04210D304F170
:10038000080188423CBF5068586007D35168101973
:1003900041601168091B016058601460101D70BD38
:1003A00013465268002AE7D12146284600F09AFBFE
:1003B0000028DED170BD70B50446051F00F08AFB31
:1003C0000068002C14BF446870BD002C18BFAC42FC
:1003D0003CBF20466468F8D301680A18AA4218BFD7
:1003E000456003D12A680546114401602868411917
:1003F000A1421CBF6C6070BD6168696021680844DF
:10040000286070BD53EA020C00F069802DE9F04BC2
:100410004FF00006002B1FBFB3FA83F503FA05F473
:1004200024FA05F65E4012BF1643B2FA82F502FACC
:1004300005F4C5F120051EBF22FA05FC44EA0C04B0
:10044000203556EA044C4FEA144418BF641C4FF0A0
:1004500000084FF00009904271EB030C39D30029DA
:1004600019BFB1FA81F701FA07F6B0FA80F700FA7E
:1004700007F6C7F120071EBF20FA07FC46EA0C0664
:100480002037B6FBF4FCA7EB0507103F07F01F0B66
:10049000CBF120060CFA0BFB2CFA06F644BFB34650
:1004A0000026202FA4BF5E464FF0000B5BEA060C2F
:1004B00008BF4FF0010B19EB0B09ABFB027C48EBBB
:1004C0000608C01B06FB02CC0BFB03CC71EB0C0136
:1004D000C1E70B46024641464846BDE8F08B13B5DE
:1004E0004FF000004FF00001AFF30080BDE81C406A
:1004F0007047B2F120030AD5C2F1200320FA02F0BE
:1005000001FA03F321FA02F140EA0300704721FAED
:1005100003F04FF0000170470FB41CB5074B06AA5B
:100520007B4469460090059800F085FB00206946F1
:1005300000F094FB1CBC5DF814FB000039070000C0
:1005400070B50C460546012A05D02878800600D5EE
:10055000EA69002302E0012305E05B1C934202D21A
:10056000E05C0028F9D1A869E618C01AA861286AD9
:10057000184428622846AFF3008004E0D5E9012141
:1005800014F8010B9047B442F8D32846AFF300802B
:1005900070BD00002DE9F041064600241068752961
:1005A000314616A510D0AFF30080002802DA404291
:1005B00013A507E031688A0701D512A502E04907B3
:1005C00004D511A5012401E0AFF3008000210A2227
:1005D00006F1240709E0B0FBF2FCB0FBF2F302FBEA
:1005E0001C00303078541846491C0028F3D12346AB
:1005F0002A463046BDE8F04100F0BEBA00000000D7
:100600002D0000002B000000200000002DE9F04725
:100610004FF0000A89460446C0F820A02046E16851
:100620008847002876D0252806D0D4E901219047B4
:10063000206A401C2062F1E7E168204600258847D7
:10064000C4F81CA006460027C4F818A02A2E09D01A
:10065000304604F038F938B304EB8708303EC8F868
:10066000186019E059F8041B204604EB87029161D9
:10067000E1688847012F064618D1E069002820DA92
:1006800025F020051DE0D8F8180000EB800006EBEF
:1006900040003038C8F818002046E1688847064610
:1006A00004F011F90028EED1012F0AD02E2E08D126
:1006B0002046E16888477F1C0646022F45F020054A
:1006C000C4DBA069002803DA404245F00105A061BF
:1006D000E80701D025F01005B6B1A6F141001928B0
:1006E00002D8203645F400654A463146204625604A
:1006F0004D46FFF7DFFD58B1012806D0ED1D25F06E
:10070000070000F1080989E704E005F1040985E71D
:1007100030468AE7206ABDE8F08740EA010310B559
:100720009B070FD1042A0DD310C808C9121F9C4281
:10073000F8D020BA19BA884201D9012010BD4FF073
:10074000FF3010BD1AB1D30703D0521C07E00020C0
:1007500010BD10F8013B11F8014B1B1B07D110F81D
:10076000013B11F8014B1B1B01D1921EF1D1184620
:1007700010BD40EA0103024630B59B0710D14FF08F
:10078000013400E008C208C91D1B9D4315EAC41FBF
:10079000F8D013F0FF0102F8011B0DD01B0AF8E797
:1007A00011F8013B002B02F8013B05D011F8013B89
:1007B000002B02F8013BF3D130BD10B5431C02E021
:1007C00010F8011B71B18107FAD14FF0013202C854
:1007D0008C1A8C4314EAC211F9D0C01A0A0603D04D
:1007E000C01E10BDC01A10BD0A0401D0801E10BD6D
:1007F0000902FCD0401E10BD40EA010370B59B0702
:100800002ED14FF00136042A2AD308C810C99D1BE7
:100810009D43121F15EAC61517D0D8B2E1B2401A8F
:1008200050EA056110D198B2A1B2401A50EA0541D0
:100830000AD123F07F4024F07F41401A50EA05217D
:1008400002D1180EA0EB146070BDA342DBD018BA21
:1008500021BA884201D9012070BD4FF0FF3070BD30
:100860000AB9002070BD10F8013B11F8014B63B1CB
:10087000A3420AD1521E08D010F8013B11F8014BD7
:100880001BB1A34201D1521EEDD1181B70BD421EF7
:1008900012F8013F002BFBD111F8013B002B02F8AD
:1008A000013BF9D17047032A40F2308010F0030C6D
:1008B00000F0158011F8013BBCF1020F624498BFB3
:1008C00011F801CB00F8013B38BF11F8013BA2F150
:1008D000040298BF00F801CB38BF00F8013B11F0CB
:1008E000030300F02580083AC0F0088051F8043B6B
:1008F000083A51F804CBA0E80810F5E7121D5CBFD8
:1009000051F8043B40F8043BAFF30080D20724BF0A
:1009100011F8013B11F801CB48BF11F8012B24BF9E
:1009200000F8013B00F801CB48BF00F8012B7047ED
:1009300010B5203AC0F00B80B1E81850203AA0E87A
:100940001850B1E81850A0E81850BFF4F5AF5FEAAE
:10095000027C24BFB1E81850A0E8185044BF18C961
:1009600018C0BDE810405FEA827C24BF51F8043B08
:1009700040F8043B08BF7047D20728BF31F8023B5C
:1009800048BF11F8012B28BF20F8023B48BF00F8F0
:10099000012B704701F0FF03114601B543EA032222
:1009A00042EA024200F00BF801BD02F0FF0343EA05
:1009B000032242EA024200F002B84FF0000204298A
:1009C000C0F0128010F0030C00F01B80CCF1040C7E
:1009D000BCF1020F18BF00F8012BA8BF20F8022BB2
:1009E000A1EB0C0100F00DB85FEAC17C24BF00F858
:1009F000012B00F8012B48BF00F8012B70474FF086
:100A0000000200B5134694469646203922BFA0E85E
:100A10000C50A0E80C50B1F12001BFF4F7AF09076A
:100A200028BFA0E80C5048BF0CC05DF804EB89005B
:100A300028BF40F8042B08BF704748BF20F8022B9E
:100A400011F0804F18BF00F8012B70474FF0013CA8
:100A500050F8042B51F8043B9A4221D1A2EB0C032D
:100A6000934313EACC1317D150F8042B51F8043BED
:100A70009A4215D1A2EB0C03934313EACC130BD18A
:100A800050F8042B51F8043B9A4209D1A2EB0C0315
:100A9000934313EACC13DBD04FF00000704700BF44
:100AA000D01A01BAB1FA81F101F0180122FA01F06D
:100AB000CB40C1F12001DBB2C0B2C01A2CFA01F365
:100AC000D11A914311EAC311E6D1704770477047BC
:100AD0007047000000487047D445002070477047B9
:100AE0007047704738B504460A4600206946AFF3A0
:100AF0000080002808BF38BD02460099204600F05B
:100B0000CDF8012038BD012000F0E2B8F8B5AFF310
:100B10000080054600200C46102000BF0646A8199C
:100B2000A0420DD9324669460020AFF3008007008D
:100B300008BF00F0CDF80098A04218BF0546C419C0
:100B4000FFF7C8FF05600746F01D20F007004619B3
:100B5000284600F00AF8B44208BFF8BDA21B31468F
:100B60003868BDE8F84000F099B800210160C0E99C
:100B700001107047102070472DE9F0470D46994647
:100B80009246044600F124080168880604D5E0690D
:100B900021F01001216000E00120A84201DD471B87
:100BA00000E00027A1697A1902EB0900081AA06188
:100BB0002078C00602D42046AFF30080002608E06B
:100BC000D4E901211AF806009047206A401C761CDF
:100BD00020624E45F4DB2078C0060AD52046AFF3EC
:100BE000008006E0D4E9012130209047206A401CB3
:100BF0002062381EA7F10107F4DC07E0D4E90121E7
:100C000018F805009047206A401C2062281EA5F1B4
:100C10000105F3DC2046AFF300802078000602D502
:100C20000220BDE8F0870120FBE7000001694A1CB3
:100C300002610878704700B58FB0CDE9013100211D
:100C4000059105497944CDE9031011466846FFF73F
:100C5000DDFC0FB000BD0000E5FFFFFF0A6802F8F1
:100C6000010B0A60704710B5436913B1AFF3008000
:100C700001E0FFF765FC012010BD127800F12401AE
:100C80000A7000224A700122EDE711684FF0FF322E
:100C9000E9E7000000487047CC4500200346406863
:100CA0008C46002818BF88423CBF03464068F8D3F2
:100CB00018681844884207D00CF1030020F00700A0
:100CC000001D411A521A0146081D0A60FFF773BB46
:100CD00010B500F039F8BDE8104000F02FB87047AB
:100CE0007546FFF7D7FFAE4605006946534620F02C
:100CF0000700854618B020B5FFF706FBBDE8204089
:100D00004FF000064FF000074FF000084FF0000BC7
:100D100021F00701AC46ACE8C009ACE8C009ACE87A
:100D2000C009ACE8C0098D46704710B50446AFF362
:100D300000802046BDE81040FFF7D7BA002801D058
:100D400000F02AB87047000010B5012805D0002136
:100D500003A000F027F8012010BD09A1F8E700006A
:100D600053494752544D454D3A204F7574206F6694
:100D70002068656170206D656D6F727900000000FC
:100D80003A2048656170206D656D6F727920636FE0
:100D9000727275707465640001491820ABBEFEE77D
:100DA0002600020070B505460C460A2000E06D1CC6
:100DB00000F011F835B128780028F8D102E0641C61
:100DC00000F009F814B120780028F8D1BDE870408F
:100DD0000A20AFF3008008B569468DF800000320B3
:100DE000ABBE08BD10B5054801F0A2F9034801F0FB
:100DF00091F903480168491C016010BDFC06002000
:100E00003C06002010B5094801F092F9074801F0AE
:100E100003FA064801F07EF905484168002903D02D
:100E20008068BDE81040084710BD00002C07002076
:100E3000C43E00200C4910B50978002404290DD1C6
:100E4000816959B1807900F0D3FA00F029FA28B10C
:100E500000F044F920B100F041F90446204610BDED
:100E600000F08AF9FAE700006807002070B5044630
:100E700000206061A061E06102202071A072032067
:100E8000012520742946204600F0AEF900B900255E
:100E90000121A01D00F0A8F900B90025012104F1ED
:100EA0000C0000F0A1F900B90025284670BD000033
:100EB000094910B50978002404290AD1816941B192
:100EC000007800F095FA00F009F918B100F01AF96D
:100ED00000E00224204610BD6807002070B50446DB
:100EE000344890F83E01C0F34000002860D0324DF5
:100EF000A888A17C88425BD16878304E20282DD00C
:100F0000212811D0222845D0232851D12878212802
:100F10004ED100F05FF9B268002A49D06888C1B2AA
:100F20002046BDE8704010472878A12840D100F045
:100F300051F900BF00F09EF90028FBD0A06900F035
:100F4000A5FA207F00F0BAFA607F00F0B7FAA07F20
:100F500000F0B4FABDE8704000F0D4B82878212839
:100F600026D100F037F9164D02E0287800281FD06E
:100F700000F096F90028F8D000F0BEF9A06100F06A
:100F8000D3F9207700F0D0F9607700F0CDF9A077A1
:100F9000316807E0287821280AD100F01BF9688819
:100FA000A0827168002903D02046BDE87040084740
:100FB00070BD0000403F002060070020B007002007
:100FC0006807002070B50D460949144609780429C0
:100FD0000BD1816949B1007800F00AFA2146284610
:100FE000BDE87040002200F07FBA022070BD000012
:100FF0006807002010B504460948007804280ED17F
:10100000A06900280BD0207800F0F2F900F032F946
:10101000002804D02046BDE81040FFF749BF10BDAE
:101020006807002000210122027008467047000076
:1010300010B51948FFF7F6FF00282CD1174800F02B
:1010400014FB002827D1164800F03AF8002822D1D6
:10105000144800F035F800281DD1134801F004FEB3
:10106000002818D1114801F0EAF8002813D11048DF
:1010700001F076F800280ED10E4800F0DFFE0028BF
:1010800009D10D4800F0DAFE002804D1BDE8104077
:101090000A4801F065B810BD98060020E806002057
:1010A000F8DA00080CDB0008BC0700205407002019
:1010B000FC0600206CDB000870DB00082C07002019
:1010C00010B50446017C0068221D01F031FF627CEE
:1010D000217C206801F068FF002010BD084890F8CE
:1010E0003C1101EB410202EBC10100EB810010F861
:1010F000041F090601D5008B00E0008980B270470B
:10110000403F002070B51A4B93F83C0100EB4001C2
:1011100001EBC00003EB8004A068241DC00625D4A9
:101120006068800722D5606840F010006060E06968
:10113000A062A06960620F4E00204FF40065A061BC
:10114000C6F8805106F5C076BFF34F8FBFF36F8F9F
:101150001B68D4E909211B6B20789847A16A0144D8
:10116000A162616A081A606246F8805C70BD000086
:10117000403F00200CE000E070B5154D95F83C01B3
:1011800000EB400101EBC00005EB8004A068241DCA
:1011900080071CD52B68D4E90412DB6A20789847B5
:1011A0000021C4E902016168090710D400280ED1AA
:1011B000606840F008006060606820F020006060B7
:1011C0002A6820786169926ABDE87040104770BD56
:1011D000403F0020034890F83E1121F0020180F8C2
:1011E0003E117047403F00202DE9F0470F4605466D
:1011F0000024DFF87C9036E004EB440605EB460063
:10120000804642880179D9F8000015F81630D0F8E8
:101210001CC003F00F0A1846E04710B10020BDE8DB
:10122000F0870AEB4A0101EBCA0009EB800015F8D0
:101230001620426098F80230826863F38C1242F004
:1012400001028260826842F00202826015F8162074
:10125000130606D4D9F8001080698B6A014610463F
:101260009847641CE4B2BC42C6D30120D7E7000013
:10127000403F0020094890F83C1101EB410202EB8D
:10128000C10100EB81008168001DC90604D44068DB
:10129000800701D50120704700207047403F0020A3
:1012A000064890F83C1101EB410202EBC10100EB52
:1012B00081008068C0F3401070470000403F00206C
:1012C0000C4890F83C1101EB410202EBC10100EB2C
:1012D000810010F8041F090607D58169006A814260
:1012E00001D2012070470020704780680028F8D1A3
:1012F00070470000403F00200A4890F83C1101EB85
:10130000410202EBC10100EB8101CA68091D032AF9
:10131000FDD9D1E90330121FC0581B1DC1E90223BA
:1013200070470000403F00200A4890F83C1101EB54
:10133000410202EBC10100EB8101CA68091D002ACC
:10134000FDD0D1E90330521EC05C5B1CC1E9022311
:1013500070470000403F00202DE9F04781462348B8
:101360000D46170090F83C114FF0000601EB4102CA
:1013700002EBC10100EB810404F1040431D03E888A
:10138000A81B21E0606800072BD4FFF799FFE8B1A4
:10139000A068A84201D9A84601E01FFA80F8D4E964
:1013A0000310014409EB06004246FFF77CFAA168EE
:1013B000A1EB0800A060E16801EB0800E06006EB2B
:1013C000080086B2A5EB080085B20AE0FFF7D4FE5C
:1013D0001FB13E800520BDE8F08700F015F8002819
:1013E000F9D1002DCED10020F5E70000403F0020CC
:1013F000044900F00F0200F0800081F83C2181F8E0
:101400003D017047403F002070B51E4D642628689E
:10141000806B80474FEA000495F83C0100EB4001E7
:1014200001EBC00005EB80010879C0F3C010C001DA
:10143000802801F1040004D04068C0F3401030B9A6
:1014400007E04268D20604D44068800701D5002036
:1014500070BD0D48007830B1052806D08868400777
:1014600005D5012070BD022070BD032070BD286825
:10147000806B8047A042CFD0761E0446F6B2CBD216
:10148000042070BD403F0020680700200A4991F801
:101490003C2102EB420303EBC20201EB8201CB6968
:1014A0004A6A091DD21E9342FDD2CA69D05088698A
:1014B000001D886170470000403F0020094991F8F5
:1014C0003C2102EB420303EBC20201EB82014B6AB7
:1014D000CA69091D9A42FDD2CB6998548869401C9B
:1014E00088617047403F00202DE9F047814624483D
:1014F0000C46170090F83C114FF0000601EB41023A
:1015000002EBC10100EB810505F1040533D03E88F3
:10151000A01B1EE06868C0062DD4FFF7D1FED0B135
:10152000A969286A401AA04201D9A04601E01FFA21
:1015300080F8E8694246084409EB0601FFF7B3F971
:10154000A96901EB0800A86106EB080086B2A4EBCC
:10155000080084B20FE0FFF7D5FDA888C0F386101D
:10156000A04204D91FB13E800520BDE8F087FFF7F7
:101570004BFF0028F9D1002CCCD10020F5E700006A
:10158000403F002010B50446407B50B9217BA06845
:1015900001F07AFCA068C16841F48071C16001204B
:1015A0006073002010BD10B54168002491F825102B
:1015B00021B1012900D00124204610BD82680021FC
:1015C00082F82710826882F826108268516082684B
:1015D00082F82810416891F827100029016806D088
:1015E000D1F80C2122F0C042C1F80C2103E00A6CB2
:1015F00022F440420A644FF0804100F033F8DBE708
:1016000070B504464068002590F8240060B10128B8
:1016100000D001252068C16C41F00201C16421683D
:1016200002208866284670BDA2680021204682F804
:101630002610A2681160A26882F82810616891F8EB
:1016400026204FF0804152B10268D2F8083123F0D1
:101650008043C2F808310268CB13C2F8183100F099
:1016600001F8D7E7006801F0BBBC10B520B14068B5
:1016700040688047002010BD012010BD0068D0F8F0
:101680001401C0F30030704770B504460068856CE3
:101690006168896941B1A90606D5C16C41F0200194
:1016A000C1646068806980476068C06948B1680645
:1016B00007D52068C16C41F04001C1646068C06911
:1016C00080476068006A00280CD015F4817F09D03B
:1016D0002068C16C41F48071C1646068006ABDE833
:1016E0007040004770BDFEB50446DDE90865D4F8DA
:1016F00004C002200A9F9CF825C0BCF1000F05D150
:10170000CDE900652046029700F0C0F8FEBD2DE946
:10171000F04184680546002694F82700012876D118
:10172000686890F82700B8B976E001F075FC626946
:10173000616888546069401C606160692169884201
:101740000AD1002084F827002868D0F80C1121F075
:10175000C041C0F80C1106E02868D0F81411C1F39C
:10176000C0010029E1D061692069814243D26169E9
:10177000411A284600F0E0FA686890F8262062B323
:1017800090F82710012000FA01F1904003F09AF937
:10179000C7B2686890F82600A8B91EE0E168A068A2
:1017A000814228D2E168491C814202D1206A012885
:1017B0000FD0286801F056FCE068401CE060761C01
:1017C000F6B2BE4217D22846FFF758FF0028E5D0F0
:1017D00011E0286801F05CFCEEE7E068A168401CBD
:1017E000884202D1206A012812D0286801F03AFC10
:1017F000E068401CE0606069216988422AD128685D
:10180000D0F80C1121F0C041C0F80C1128E021E003
:10181000286801F03DFCEBE7286801F0FDFB6269F8
:10182000616888546069401C606160692169884210
:1018300016D2E168A06881420CD2E168401E814264
:1018400002D1206A012807D0286801F00BFCE0686B
:10185000401CE060BDE8F081286801F019FCF6E763
:101860002868016C21F44041016494F828000128A3
:10187000F0D12846BDE8F04100F09CBA0168CA6C7E
:1018800042F01002CA64006801F04CBC2DE9F0413E
:101890008468DDE9065C089F022668B121B994F8E6
:1018A00028E0BEF1000F07D033B12DB194F827E046
:1018B000BEF1000F02D01BE0012619E00126A6614F
:1018C00063602561A560236084F8266084F8276042
:1018D000C4E907C700236361E360436893F82730D6
:1018E0001BB12B4600F025F901E000F0C0F90026FD
:1018F0003046BDE8F0812DE9F0410E000546DDE9F6
:10190000061CAC6817464FF0020002D194F828205C
:101910000AB303B3F9B10022A26194F826E0BEF144
:10192000000F19D12360C4E90212012084F82600B7
:101930008107C4F81CC0286801F060FB94F82420DB
:101940001021286802F02AFF46B1002239462846B5
:1019500000F013FA09E00120BDE8F08194F82410AA
:1019600028684FF480328A4082660020F4E72DE92F
:10197000FC410446DDE908656768022097F8247099
:10198000002F04D1CDE900652046FFF7B4FFBDE884
:10199000FC8100002DE9F041054684680068816CF7
:1019A0004FF0804611F4B17F0FD0D0F8081121F02C
:1019B0008041C0F808112868016C21F400510164CD
:1019C0002846BDE8F041FFF75FBEA2690121002A69
:1019D0006A680FD092F82630002B70D092F827005A
:1019E00078B301FA00F201FA03F0114603F06AF845
:1019F000C7B25CE092F82620EAB3E268A3689A4294
:101A000020D231462846FFF72DFE2868D0F808116D
:101A100041F08041C0F808110CE0E068A1688842FC
:101A20000DD2E1682068415C286801F091FBE06814
:101A3000401CE0602846FFF721FE0028EDD0BDE8FD
:101A4000F08133E0D0F8082122F08042C0F808216C
:101A5000686890F92800002808DB00F01F02914018
:101A60004009800000F1E020C0F88012D5F80000A5
:101A7000D0F8141100E00CE0C1F3C0210029F7D028
:101A800094F828000128DAD12846BDE8F04100F09A
:101A9000B5B9E168A2689142F2D2E2682168895C36
:101AA00001F056FBE068401CE060C8E702272868A8
:101AB000D0F8081121F08041C0F8081114E01DE0B1
:101AC000E168A068814226D2E168491C814202D1C6
:101AD000206A01280ED0286801F0C4FAE068401C92
:101AE000E060E068B84216D22846FFF7C7FD00283C
:101AF000E6D010E0286801F0CBFAEFE7E168A268D1
:101B0000491C914202D1216A01290FD001F0AAFAA1
:101B1000E068401CE060A868C168806881428ED19E
:101B200031462846BDE8F041FFF79CBD01F0B0FA10
:101B3000EEE72DE9F0410546846800680E464FF453
:101B400080411746C0F818111946284600F0F4F8ED
:101B50002868D0F80C1141F0C041C0F80C11686839
:101B60004FF08041A6B390F8240001280AD0022843
:101B700008D0286801F042FA94F82420102128683F
:101B800002F00CFE01223946284600F0F6F868689B
:101B900090F82410022919D190F8260088B91CE089
:101BA000E168A068814211D2E168491C814202D1FA
:101BB000206A01280DD0286801F054FAE068401C22
:101BC000E0602846FFF75AFD0028E9D0BDE8F08123
:101BD00012E0286801F05CFAF0E7E068A168401CB8
:101BE000884202D1206A01283DD0286801F03AFAE3
:101BF000E068401CE060E9E790F8260010B3286830
:101C0000D0F8081121F08041C0F8081110E0E16817
:101C1000A0688142DAD2E168491C814202D1206A7F
:101C200001280BD0286801F01DFAE068401CE06034
:101C30002846FFF723FD0028E9D0C7E7286801F010
:101C400027FAF2E7E168A0688142BFD2E168491C47
:101C5000814202D1206A012805D02868C16C41F474
:101C60007241C164C1E7286801F012FAC0E770B59B
:101C70000546846800681646026C42F440420264DD
:101C80004FF0804061B3696891F8241001290CD0AD
:101C900002290AD02A680146104601F0AFF994F8EB
:101CA00024201021286802F079FD012231462846BF
:101CB00000F063F8686890F82400012801D0022839
:101CC0000DD1E068A168401C884202D1206A012839
:101CD00013D0286801F0C6F9E068401CE06070BDD0
:101CE000686890F826000028EBD02868D0F8081122
:101CF00021F08041C0F8081114E0286801F0C8F90B
:101D0000EAE7E168A0688142E9D2E168491C8142C2
:101D100002D1206A01280BD0286801F0A3F9E068FD
:101D2000401CE0602846FFF7A9FC0028E9D070BD00
:101D3000286801F0ADF9F2E770B542680D46044637
:101D400092F82710012000FA01F192F82620C9B27A
:101D500012B19040C0B200E0012002F0B3FE014693
:101D6000284602F0AFFEC2B26068521E90F82710FB
:101D70002068BDE8704002F0B6BC30B4836893F8C8
:101D80002840012C0CD0012483F82840036889B234
:101D9000DC6C44F00404DC64006830BC01F0A8B9D9
:101DA000036889B2DC6C44F00804DC64006830BC71
:101DB00001F084B970B5846805460026E069012801
:101DC0000AD12868816B01F080018029FAD084F85B
:101DD00028602846FFF752FD2868816B01F08001DA
:101DE0008029FAD084F8276084F826606868406902
:101DF000002802D0BDE87040004770BD70B50546B0
:101E00004FF080418468FFF72DFCE069002601282F
:101E100004D184F828602846FFF730FD2868816BDC
:101E200001F080018029FAD084F826606868006992
:101E3000002802D0BDE87040004770BDF0B51F49D2
:101E400090F9004009684678C1F302218578C1F114
:101E50000707062F00D906278A1D072A01D200216D
:101E600000E0491E012202FA07F35B1E33408B405B
:101E700002FA01F6761E2E403343002C4FEA83010E
:101E800004DB04F1E02484F8001405E004F00F03FF
:101E900003F1E02383F8141DC17801290CD190F9D6
:101EA0000000002808DB00F01F018A404009800084
:101EB00000F1E020C0F800210020F0BD0CED00E0B2
:101EC00030B500F00703C3F10704062C00D906243F
:101ED000981D072801D2002300E05B1E012505FAAA
:101EE00004F0401E084098409D406D1E1540284358
:101EF00030BD30B500F00703C3F10704062C00D94C
:101F00000624981D072801D2002300E05B1E01254E
:101F100005FA04F0401E084098409D406D1E154093
:101F2000284330BD00487047001BB70000B585B09E
:101F300014220F496846FEF7FBFC684601F0C8F919
:101F4000002001F0A3FB002001F092FA042001F030
:101F500085FA2021012001F037FB002001F09CFAD6
:101F6000012001F08FFA012001F042FA05B000BD16
:101F7000E4DA000810B51C4C2068C1031B4823D5C7
:101F80001B490968C90701D1FFF7CCFF18490C3973
:101F900009684A07174911D50A68C2F303630A683A
:101FA0000968C2F30622C1F30641491C5B1C13FBFE
:101FB00001F1B0FBF1F0521C504305E0096801F05B
:101FC0007F01491CB0FBF1F02168C9B2491CB0FB8C
:101FD000F1F00549091D096801F00101491CB0FB38
:101FE000F1F00549086010BD0C46005000366E0146
:101FF0001C47005018470050C0FF03201B490868C9
:102000004FF6FF0210401A4A40F4807010430860F7
:1020100072B618481549091F0860BFF34F8F62B6A2
:1020200012487C30016841F4700101601248416936
:1020300021F00F0141F0040141610C4808300168B2
:1020400021F010010160016821F0080101600748DA
:102050001830016821F480310160016821F40031F9
:102060000160016821F48021016070470CED00E0FF
:102070000000FA05000000080020005810B51022EA
:1020800051060448FEF70FFCFFF7B8FFFFF74EFFBD
:1020900010BD0000C4FF032070B504460069FFF7BF
:1020A00071FA06462069217E8068C268012505FA1A
:1020B00001F10A43C260E169606900F0F5FE204663
:1020C00000F01DF894F8250001280BD194F8202089
:1020D0000021606900F000FF606950F8A41F41F022
:1020E0000101016060690221016184F8265094F8C1
:1020F0002400012801D16069C560304670BD416986
:10210000428C4A6341690022CA630169C0688968D8
:102110000861704790F82610012901D0012070470E
:1021200090F8211011B94069022101610020704727
:1021300090F82110002905D1406950F8B01F41F0F6
:102140000101016070470146002091F82120002A1A
:1021500005D148698068C04340F30000401C7047C7
:102160000146002091F82620002A06D191F821206E
:10217000002A02D10846FFF78FBF704770B50B46A3
:1021800004460125FFF7DFFF98BBA068984230D8CE
:10219000616899422DD3002000E0401CC0F10F027D
:1021A00021FA02F29A42F8D394F8211009BBE569AA
:1021B00021696A68096860F30302A3FB01016A6090
:1021C00002F00F02E569FEF794F90B4A0023FEF7CF
:1021D00019F980B26084012801D9401E60842879F1
:1021E00000F00F01606900F09AFE2046FFF787FFBC
:1021F0000025284670BD000000E1F50590F8261086
:10220000012901D00120704790F8211011B94069CF
:102210000121C1600020704700B50346FFF793FF1E
:1022200018B193F82600012801D0012000BD93F8D1
:10223000210010B9586901210161002000BD4068EA
:102240004068004730B4034604205C6894F82A4094
:10225000002C03D130BC184600F002B830BC7047E7
:1022600070B504460423D4E9015095F82A5025BBE3
:10227000457E02230DBB09B302B302614160012117
:10228000417600214161606890F82C0000282068A8
:102290000ED05903C0F818111146204600F0ABF8D3
:1022A0002068D0F80C1141F0C041C0F80C1103E0D7
:1022B000016C41F440410164002300E0032318460F
:1022C00070BD30B5D0E90153042495F8295045BBC1
:1022D0001D7E02242DBB29B322B319600021C3E95E
:1022E000022101211976416891F82B10002901681B
:1022F0000AD0A203C1F818210168D1F8082142F0E0
:102300008042C1F8082103E00A6C42F400520A64DA
:10231000D0E90010002490F82D004FF48032824064
:102320008A6600E00324204630BD10B40346042032
:102330005C6894F82940002C03D110BC1846FFF7C4
:10234000C0BF10BC7047000070B505460026D5E937
:10235000010490F82C00F8B92FE000BFD4E9042163
:10236000914201D3084607E001F0F2F96269616821
:1023700088546069401C6061216988420CD166768E
:102380002868D0F80C1121F0C041C0F80C11686821
:10239000C06840B1804706E02868D0F81411C1F346
:1023A000C0010029DAD0D4E90410884222D2091AE7
:1023B0002846BDE8704000F01EB8D4E904108842F9
:1023C00008D2286801F0C4F96269616888546069BC
:1023D000401C6061216988420CD166762868016CD6
:1023E00021F4404101646868C068002802D0BDE85B
:1023F0007040004770BD426892F82C3001229A402C
:10240000914201D24A1E00E0521E0068194602F0B5
:102410006AB9000070B5846805460068D4E90221F5
:10242000914220D26A6892F82B2062B913E000BF73
:10243000D4E9022191420DD22268515C01F0CCF91D
:10244000E068401CE0602868D0F81411C1F3003146
:102450000029EDD070BD2268515C01F0BDF9E06843
:10246000401CE06070BDD0F81411C1F3C0210029F8
:10247000F8D0696891F82B1031B1D0F8081121F02B
:102480008041C0F8081103E0016C21F4005101649F
:102490002868816B01F080018029FAD00020207625
:1024A0002060686880680028DCD0BDE87040004784
:1024B0000148006801F07CBC8007002001480068EA
:1024C000C0680047403F002010B51A4C08221A4946
:1024D0002068C36A0020984794F83E1141F0020139
:1024E00084F83E11082823D11348C18849B10178E6
:1024F000090613D5022084F83B01BDE8104000F026
:1025000033B8032084F83B0100F02EF82068002245
:102510001146036BBDE8104010461847042184F8AB
:102520003B11C1882068826ABDE810400020104736
:1025300010BD0000403F00206007002010B5094C8E
:1025400001212068426A80209047002809D101209B
:1025500084F83B0120681821826ABDE81040002001
:10256000104710BD403F00202DE9FC470027DFF851
:102570006C8201970097B8F80200994CC6B2D4F863
:102580004001C06800B1804794F83E01800761D5E2
:1025900098F80100934D4FF003090C2811D2DFE8A1
:1025A00000F06A0610D710A83B1035BA5ACC98F83C
:1025B000000000F00300022804D098F80000800713
:1025C0001FD001E1B8F80400297800F00F000429B9
:1025D00003D0B8F804100029F3D100EB400101EB5F
:1025E000C00004EB8000017AC907EAD0816821F0BD
:1025F00004018160B8F804002168C0B24A6A002171
:10260000D0E094F83E0120F00400B1E020680122FF
:102610007549036B00206AE0D4F840014369002B40
:1026200046D0B8F80200B8F8041001AA984705008F
:102630003ED0B8F80600A84201D8B8F80650206885
:102640002A460199036B00209847291AA162019933
:102650000844E062BAE02878042808D1B8F80410E9
:102660006148401E014420680122036B3EE0287847
:1026700003281DD0AAE098F80000800706D098F83B
:10268000000000F00300012809D00BE094F83E019F
:10269000C0F3C001C0F3800041EA400021E0287887
:1026A000042806D098F8000000F00300022802D0A9
:1026B0008AE0009716E0B8F80400297800F00F00CF
:1026C000042902D0B8F80410A1BB00EB400101EBD3
:1026D000C00004EB8000017AC90775D08068C0F3A0
:1026E00080000090206802226946036B0020984712
:1026F0006CE046B148462870216830468A6900215E
:10270000904710B162E00220F5E7D4F8400100697B
:1027100080B380475AE084F83961D4F8400180687A
:1027200000B180473EB194F83E01C0074CD0042070
:1027300028704BE014E04846FAE72878042896D140
:10274000B8F80200B8F80410214481F838013DE0DF
:10275000022E39D02878042803D02878032823D0E3
:1027600032E046B1012E31D194F83E0140F0040030
:1027700084F83E012AE0B8F8040000F00F0000EBF6
:10278000400101EBC00004EB8000017AC9071BD0B7
:10279000816841F004018160B8F804002168C0B28A
:1027A0004A6A0121904711E076B998F8000000F0DC
:1027B0000300022808D1B8F8040010F0FF0F03D17D
:1027C000A06840F00400A060FFF7B8FE94F83E0156
:1027D00020F0020084F83E01BDE8FC87600700207D
:1027E000403F0020680700207940002070B5054672
:1027F00001F07EF84FF4A2712E48FEF700F92E4941
:10280000002008702B4C2D484FF48071206001206F
:1028100084F83B0104F5A270C4E9080100F580705A
:10282000C4E90501606820F080006060A06840F0A5
:102830000100A060A06840F00200A06020F4FE50FB
:1028400000F58050A0602869C16899B1416989B1DB
:10285000816879B1C4F84001012000F0C5FC184836
:1028600068601848A86020684168284688470500C5
:1028700002D00BE001251BE000F08AFA206840221C
:102880000021C36908469847050011D001F030F8CF
:1028900020688068804758B96B2001F0CDFF0A4955
:1028A0004FF40060C1F88001BFF34F8FBFF36F8F0B
:1028B000284670BD403F00206807002058DD000812
:1028C00001290008E92900080CE000E0014800683F
:1028D000C06B0047403F002010B5040600F00F0019
:1028E00000EB400303EBC000044B03EB800002D578
:1028F000C0E9081210BDC0E9051210BD403F00201C
:102900002DE9F041374C002701233549D4F8402107
:102910000A2856D2DFE800F054514D4F05555C5758
:10292000554B0220087084F83B3194F83E0107268D
:1029300020F0040084F83E01C6F1070000EB4001DE
:1029400001EBC00004EB8005A86820F01000A8602F
:10295000A86820F00800A860A86820F00400A8601B
:10296000072E22D0287AC0070CD021682879096A5E
:10297000884738B9A86820F00100A860A86820F04E
:102980000200A860761ED7D184F8397184F83871B6
:10299000216820798A6A18219047D4F84001406A5A
:1029A00000280ED0BDE8F04100470626C4E7106AB3
:1029B000F6E71068F4E70B7000E00F705068EFE77F
:1029C0000B70BDE8F08194F83A0108709069E7E770
:1029D000087884F83A0105200870D069E0E7000023
:1029E00068070020403F00202DE9F04700F00F026B
:1029F0004D4D02EB420303EBC20395F83C7195F891
:102A00003D6105EB830485F83C2100F0800085F8EA
:102A10003D01241D41B14FF000084FF0010901298B
:102A20000DD0022979D131E0606820F008006060A3
:102A300095F83C01002870D1FFF746FD6DE0606815
:102A400040F020006060A06840B9C4F80C802B689A
:102A5000D4E90412DB6A20789847A060606820F00F
:102A60000800606095F83C01F0BB95F83B01042834
:102A700002D005284AD050E0FFF776FD28680022F2
:102A80001146036B1046984703203CE02648626AD3
:102A9000036852B11B6B2078A16A9847616A091AD2
:102AA0006162A16A0844A06237E02168080712D178
:102AB000A06980B11D4AD28890420CD0A288C2F38E
:102AC0008612B0FBF2FC02FB1C0020B9C8B21B6BE3
:102AD000002211469847C4F81880606820F0100062
:102AE000606095F83C0100E017E0B0B995F83B0153
:102AF000022802D0032809D00FE028680021826A4A
:102B000008469047052085F83B0106E029682879AA
:102B10008A6A1821904785F83B9185F83C7185F8C1
:102B20003D61BDE8F0870000403F002060070020C5
:102B300070B5084D4FF40064C5F8804105F5C075C7
:102B4000BFF34F8FBFF36F8F0348FEF773F945F85C
:102B5000804C70BD0CE000E06C4300200149012076
:102B60008870704784070020014901204870704731
:102B70008407002001490120087070478407002065
:102B8000FFF79CBC10B5402210498120FFF7A4FE3E
:102B90000E49402240318220FFF79EFE0B49402221
:102BA00080310320FFF798FE0848C030FEF75EF939
:102BB000002809D0064890F83E1141F0010180F844
:102BC0003E1104490420087010BD0000AC420020F2
:102BD000403F0020680700200148FEF77FB9000051
:102BE0006C43002010B5030A0021C4B20846012B33
:102BF00004D0022B04D0032B16D105E00B490FE0C3
:102C00000A4912313E200FE024B1012C06D0022CDB
:102C10000AD107E005495031042005E00349B631E7
:102C2000122001E002491020116010BDD4DB000821
:102C3000F0DC00080A4910B591F83E01C2070DD03A
:102C400020F0010081F83E010648006800F00CF811
:102C5000002803D1BDE81040FFF730BC10BD0000D4
:102C6000403F0020C007002070B511490024822297
:102C70008C740A7040224A8002230B714C71032528
:102C80008D710A818B72CC7281220A730822CA81EB
:102C900020460D744874074800F03CF820B90648F7
:102CA0000068FFF7A3FD00B10124204670BD0000BD
:102CB0006C430020880700208007002010B5FFF734
:102CC00005FE18B103480078042801D0002010BD8B
:102CD000012010BD68070020F8B54FF0000406463B
:102CE0000D002046ADF800400ED06EB10849032219
:102CF00081F83C2181F83D016A4629463046FEF7BD
:102D00002BFB0528F8D000B106242046F8BD0000B2
:102D1000403F002030B5002208B3124B0469196807
:102D20000D692C610D698468AC60096904680C60E8
:102D30001968C4680B69DC600C69436863600C69DE
:102D4000436963610C69C369E3610C698369A361C9
:102D50000C69036A23620969406A486200E0012243
:102D6000104630BD8007002010B5002459B150B185
:102D70000A4601460548FEF725F900B10624034836
:102D8000FEF796F800B10624204610BD6C430020E3
:102D9000114810B50068C0F30220C0F107010629F0
:102DA00000D90621821D072A01D2002000E0401E22
:102DB00001228A40521E02F03B01814088000749EF
:102DC00081F800046B2001F037FD04494FF40060E6
:102DD0005F39C1F8000110BD0CED00E06BE000E0D0
:102DE0000148FFF717BB0000540700200148FFF718
:102DF000ABBA0000540700200148FEF788BC000071
:102E0000E80600200148FEF7C5BD0000E8060020E6
:102E10002DE9F0410446102000F0E6F915488442FF
:102E200004D1042000F006FC04201CE0124D134ED7
:102E3000134FDFF85080AC4201D1082006E0B442C5
:102E400001D1102002E0BC4202D1404600F0F2FB6A
:102E5000AC4201D1082006E0B44201D1102002E0CA
:102E6000BC4204D14046BDE8F04100F04DBCBDE895
:102E7000F081000000C0004000000140004001401F
:102E8000004000480100001070B50D460446FFF7F1
:102E9000BFFFE06840F48070E060206820F44040AC
:102EA00040EA8530206070BD0A6842618A88C2F3BA
:102EB0004032120542600A7902F00F0242628A88AB
:102EC000C2F3032202628A88C2F300328261097966
:102ED000C1F30311C162704710B5D0F8A8400A29A8
:102EE00014D2DFE801F005050808131313130B0FC4
:102EF000032300210DE00C2302210AE04FF440736C
:102F0000082106E04FF440630A2102E04FF44053E9
:102F10000C219C438A402243C0F8A82010BD826A3D
:102F200022F4706242EA012282624162704700002C
:102F3000F0B521F0030303441D698C07E40EF82665
:102F4000A640B5431D61456F4F000326BE40B54303
:102F50004567134DA84202D0124DA84205D1056E17
:102F600001268E40B543056614E015782D0611D56F
:102F700055688D404560CD0800EB8500066C49071B
:102F8000CD0E0721A9408E430664117AA940056C35
:102F90002943016410781969A04008431861F0BD05
:102FA000008E0248008F024810B5436F4900032489
:102FB0008C40A3434367436F8A401343436710BD6C
:102FC00021F0030310B5184403698907C90EF824DA
:102FD0008C40A343036103698A401343036110BD1E
:102FE000026C01F4FE339A430264C26B024B194037
:102FF0008A43C263704700000000FC41026C01F488
:10300000FE331A430264C26B024B19400A43C26387
:10301000704700000000FC41D0F80C1111F0E06F87
:1030200003D0D0F81C01C0B27047406DFBE7000030
:1030300070B50D46044601F0FFFA09486063A9889F
:10304000204600F0B7F82046296800F095F84FF4C4
:10305000A060A0634FF0FF30E0640020206470BDEA
:1030600003033F07D0F8081111F0E06F4FF400712F
:1030700002D0C0F880117047826B02F08002802A73
:10308000FAD0C26C42F40052C264C0F8801070479B
:10309000D0F8081111F0E06F4FF4407102D0C0F881
:1030A00080117047826B02F08002802AFAD0C26CD5
:1030B00042F40052C264C0F88010704741F4A0612D
:1030C000012A01D141F00101D0F8082112F0E06F8E
:1030D00002D0C0F880117047826B02F08002802A13
:1030E000FAD0C26C42F40052C264C0F8801070473B
:1030F00041F48061012A01D141F00101D0F8082199
:1031000012F0E06F02D0C0F880117047826B02F0BD
:103110008002802AFAD0C26C42F40052C264C0F825
:1031200080107047D0F8081111F0E06F4FF4C061C3
:1031300002D0C0F880117047826B02F08002802AB2
:10314000FAD0C26C42F40052C264C0F880107047DA
:10315000D0F8082112F0E06F02D0C0F8801170475B
:10316000826B02F08002802AFAD0C26C42F40052D4
:10317000C264C0F88010704710B50C4A0124914217
:1031800005D8C26B22F40032C2630A2207E0084A63
:10319000914208D8C26B42F40032C263192201F096
:1031A000B3FA00B90024204610BD0000A08601003B
:1031B000801A0600C1F384221E2A02D00902C163CC
:1031C0007047CAB24FF47E4303EA41010A43C26327
:1031D0007047000002480168024A114301607047CD
:1031E00014470050020001000149086070470000C8
:1031F0000446005010B50C4C206820F4803020604C
:10320000FEF790FE0949B0FBF1F0094901EB0041DE
:10321000054810380268074B1A40114301602068C6
:1032200020F40030206010BD14470050A025260077
:103230000000FFFFCFFFF0FF12484FF40001C0F87D
:103240008010D0F81C1321F03001C0F81C13816FDE
:103250000902FCD54FF40031C0F880100821C0F8F5
:103260000413816F8903FCD54FF40021C0F880104E
:10327000D0F80C1341F00801C0F80C13816F09035A
:10328000FCD570470040005002480168024A1140D6
:103290000160704714470050FDFFFEFF010F054A13
:1032A00001EB410102EB810120F07040C1F84406BE
:1032B0007047000000400050034804490068096856
:1032C00001F00101C8407047C0FF032014460050C0
:1032D00038B50446002000F0A9F800F0B9F9E0790B
:1032E000012805D1FFF7A8FF00F04AF80028FBD01D
:1032F000607A00F0DBF91B48D0F8C4100029FBD13C
:10330000207A00F047F8207C00F086F8607C00F01E
:1033100065F8A07C00F058F8E07C00F073F8A07924
:10332000012805D1FFF766FF00F01EF80028FBD04A
:10333000E078A0B1FFF7A8FFA0780090237862782A
:10334000E178A08800F0B2F8E1684FF48030814263
:1033500001D100F06BF8BDE83840FEF70BBEFFF777
:1033600039FFF1E700400050044801684FF46070F5
:10337000884301D00020704701207047104700505B
:103380000348D0F8000340F3C000401C7047000021
:103390000040005010B50B4C216841F480112160B1
:1033A00001280AD1206820F480102060642000F0F9
:1033B000B9F9206840F400202060BDE81040642086
:1033C00000F0B0B91447005003490A68401E22F0CB
:1033D000010202430A6070472046005003490A6810
:1033E000401E22F0010202430A607047104600505E
:1033F00003490A68401E22F03F0202430A607047F8
:103400001C46005003490A68401E22F00102024394
:103410000A6070471446005003490A68401E22F0B3
:10342000FF0202430A6070470C46005003490A68D5
:1034300022F4803202430A60704700000C460050BC
:103440000549002840F20112086802D010430860C4
:1034500070479043FBE700001C47005003490A688F
:10346000401E22F0070202430A60704718460050CF
:1034700003490A6822F4803202430A607047000060
:103480001846005003490A68401E22F0FF0202431A
:103490000A6070472446005003490A6822F440320B
:1034A00002430A6070470000244600502DE9F047AF
:1034B0001E4617460B460546089CFFF7C1FFDFF87E
:1034C000FCA0012BAAF10408A8F1040913D0DAF832
:1034D0000010641E21F07F012143CAF80010D8F8C3
:1034E000001041F00101C8F8001048460168C90702
:1034F000FCD0BDE8F087EDB34FF0C0607043B0FB87
:10350000F7F51820B5FBF0F0830DD8F80010404611
:1035100041F00101C8F80010D8F8001041F0100186
:10352000C8F80010DAF80020DFF894C002EA0C02B4
:103530006FF0FF0C0CEB062632434FEA0C2606EB2D
:1035400003431A43330203EB07631A43CAF800200C
:10355000016841F040010160016821F01001016043
:10356000016841F48021016049460A685207FCD590
:10357000026800E01AE022F0010202600868C00759
:10358000FCD13C20B5FBF0F0800D844201D200F06C
:1035900041F85A20B5FBF0F0800D844201D200F0D2
:1035A00039F82046BDE8F04700F034B8FEF7BAFC21
:1035B0000449B0FBF1F08005A0E700001847005077
:1035C000FF8080F040420F00114A136843F001036E
:1035D0001360136843F01003136009024FF07F4338
:1035E00003EB0060A1F5807101431160106840F0A9
:1035F00040001060106820F010001060106840F467
:1036000080201060101F01684907FCD5704700003A
:103610002447005005490A68054B22F4FE0203EBDB
:10362000004002430A60322000F07CB81847005086
:103630000000FFFF010F054A01EB410102EB810190
:1036400020F07040C1F8480670470000004000506C
:103650000C48D0F80012C90706D10121C0F80412A5
:10366000D0F80012C907FBD007480168890507D5C3
:10367000054A4FF400710832116001688905FCD4D5
:10368000704700000040005000440050064900BF51
:10369000D1F8C4201207FBD4D1F80C2322F0400249
:1036A0000243C1F80C23704700400050064900BF98
:1036B000D1F8C4201207FBD4D1F80C2322F08002E9
:1036C0000243C1F80C2370470040005002494FF4F8
:1036D0004030C1F8080270470040005002494FF4E2
:1036E0004030C1F80402704700400050010F054A05
:1036F00001EB410102EB810120F07040C1F81004A0
:103700007047000000400050010F054A01EB4101E5
:1037100002EB810120F07040C1F8140470470000F2
:103720000040005010B50446FEF724FC0648074947
:103730000068B0FBF1F16143002001E000BF401CD4
:103740008842FBD310BD0000C0FF032040420F00A1
:10375000D0F80C1111F0E06F03D0D0F81C0180B24A
:103760007047406DFBE770B50D460446102600F02B
:1037700063FFE87900B1064632462046296800F02A
:10378000C3FFA879710840004FF4807303EB012157
:10379000801E0843401C40F440304FF0FF32E0638D
:1037A0002879991C401E41EA006060636879110421
:1037B00028B1636B01EB00400343636305E0606B7A
:1037C0002B7901EB0341084360634FF4A060A063D1
:1037D000E2642889206470BDD0F8082112F0E06FFF
:1037E00002D0C0F880117047826B02F08002802AFC
:1037F000FAD04FF40052C264C0F880107047000045
:1038000000214FF000420E281DD2DFE800F0071C17
:103810001C1C0A1C0D10101214171C1A4FF08041AA
:1038200011E04FF480510EE04FF400610BE01146BF
:1038300009E0082107E04FF4806104E04FF40051F3
:1038400001E04FF400210248D0F8A0014161704727
:10385000C4430020034A02EB8101D1F8A81188601B
:1038600070470000C4430020034A02EB8101D1F8F5
:10387000C411886070470000C44300200448D0F899
:10388000A401416821F0020141600020704700005E
:10389000C44300200448D0F8A401416841F002016B
:1038A0004160002070470000C443002030B5094D3E
:1038B0000824D5F8FC11090C61F3410400F0CCFB9D
:1038C000D5F8FC1160F382042046890C61F30000F6
:1038D00030BD0000C4430020044AD2F8A4311A6865
:1038E00011B960F30A121A6000207047C443002027
:1038F00010B5054C2046FFF7F9FE2046FFF7CEFC39
:10390000BDE81040FFF7E2BE8000002010B5054C76
:103910002046FFF78FFE2046FFF7F6FEBDE8104079
:10392000FFF7DCBE800000200349D1F8A4110A692A
:1039300002430A6170470000C44300200349D1F8E4
:10394000A4114A6902434A6170470000C443002041
:1039500000F00F0000EB800101EBC0000E4901EB0D
:1039600080000178090608D5416821F0080141600E
:103970000178090601D5416803E0416821F0100192
:10398000416021F02001416000210161816181627B
:10399000C162016308467047C44300202DE9F05F0F
:1039A000DFF8BC910E461746D9F8A4118046CD69C0
:1039B00000F00F0101EB810202EBC10109EB810470
:1039C00034212046FDF71BF884F80080606840F041
:1039D000040067F3D120606008F0FF0010F0FF0FD3
:1039E00002D04FF6C07000E04020A0605D4908F0B2
:1039F0000F0001EB0020E06108F00F00A1F5E0618D
:103A000001EB00205649E06008F00F001C394FF030
:103A1000010B51F82000206208F00F001C3951F80A
:103A2000200060612068010600D486BB00F00F0012
:103A300009EB8000D0F8A801006840F4004066F36C
:103A400093406EB167F30A0020F4001040F0805AF2
:103A50000122002003464FF6FF78B9F8FC111DE063
:103A6000082F10D0102F0AD0202F04D0402FEBD1D8
:103A70006FF30A00E8E76FF30A00401CE4E76FF316
:103A80000A00801CE0E76FF30A00C01CDCE727E0B7
:103A9000401CC0B208EA4202072802D21142F7D104
:103AA00001E0114203D11143A9F8FC1103466068FB
:103AB00063F3891081096060504661F39950217861
:103AC00001F00F0209EB8201D1F8A81108602178FA
:103AD00001F00F020BFA02F145EA010060F30F0555
:103AE0002068C0F3C011494231421BD100F00F01E0
:103AF00009EB8100D0F8C411086840F4004066F377
:103B00009340AEB167F30A0020F4001040F08050FB
:103B10000860207800F00F010BFA01F040EA154030
:103B200060F31F45D9F8A401C5610020BDE8F09FEE
:103B3000082F10D0102F0AD0202F04D0402FE3D10F
:103B40006FF30A00E0E76FF30A00401CDCE76FF355
:103B50000A00801CD8E76FF30A00C01CD4E70000FD
:103B6000C4430020C80E00200B4670B500EB800156
:103B700001EBC0000B49154601EB80042069A84207
:103B800000D20546A169E0682A4601441846FCF7C0
:103B90008AFE2069401B206101D0A0692844A061F1
:103BA000284670BDC443002000F00F0000EB8002E7
:103BB00002EBC0000D4A10B502EB80004268D2064D
:103BC00002D40279520701D4012010BD42698A4211
:103BD00000D2114601630021C1628162C268426263
:103BE000016100F071FC002010BD0000C443002002
:103BF00000F00F0202EB820303EBC2031A4A10B576
:103C000002EB830200F00F0303EB830404EBC30415
:103C1000154B4FEA006013F8244004F00F0403EB47
:103C2000840371B1002802DAD3F8A80101E0D3F8C7
:103C3000C401016841F400110160506840F02000A7
:103C40000FE0002802DAD3F8A80101E0D3F8C4019C
:103C5000016821F4001141F080510160506820F0AA
:103C600020005060002010BDC443002000F00F0071
:103C7000F0B500EB800101EBC0002D4901EB8000A5
:103C8000D1F8A421D2690378012403F00F0504FAC6
:103C900005F305796D0701D40120F0BD46684FF0AA
:103CA000904526F024064660466826F010064660D9
:103CB000466826F0080646600668370602D407798B
:103CC000BF0710D106F00F0601EB8606D6F8A861F3
:103CD000356022EA030666F30F020678360602D53F
:103CE0000679B60715D1067806F00F0601EB8606B1
:103CF000D6F8C4613560150C9D4365F31F420D4D28
:103D00002D686D7B012D04D1D1F8A4516E6B9E43BB
:103D10006E63D1F8A431DA618088B1F8FC21C0F378
:103D200083108440A243A1F8FC210020F0BD0000D4
:103D3000C4430020C407002070B5154600F00F00F2
:103D400000EB800202EBC000114A02EB80042079F4
:103D5000400701D4012070BD6068000701D5002034
:103D600070BD206AA84200D205462A46E069FCF7E9
:103D70009AFDE06960620020A062C4E90B056068FA
:103D800040F008006060204600F0F0FB206B70BD42
:103D9000C44300204FF4EE70704700000348D0F891
:103DA000A4018068C0F30D2070470000C4430020C8
:103DB0002DE9F0414E4C0646D4F8A00187694569CB
:103DC0003D40280706D5D4F800120920884709206D
:103DD000FFF716FD707B01281ED1E8061CD5D4F82C
:103DE000A00127F010078761D4F8A001006AC0F392
:103DF000434107290BD2DFE801F00A0A040A0A0A44
:103E00000400C0F30A1100F00F0000F01FFBD4F80B
:103E1000A01147F010008861680502D50A20FFF75D
:103E2000EFFC280506D5D4F80012062088470620A6
:103E3000FFF7E6FC002D06DAD4F8001208208847C8
:103E40000820FFF7DDFC68000CD5D4F8FC0140F435
:103E50008020C4F8FC01D4F800120020884700201C
:103E6000FFF7CEFCE80402D5304600F085FAA8043E
:103E70001DD5D4F8A80101686FF30A010160D4F8D8
:103E8000FC0140F4A020C4F8FC01D4F80012022088
:103E900004F5D07488472068C16821F4705101F599
:103EA0001051C1600B20A4F5D074FFF7A9FC680382
:103EB00002D5304600F034F9280302D5304600F030
:103EC000DDF9680711D5D4F8A0014568680709D560
:103ED000D4F8FC0120F48020C4F8FC01D4F80012CE
:103EE00001208847D4F8A0014560BDE8F0810000BA
:103EF000C443002070B50546FFF708FD4348444B16
:103F000005600020402103F11C0200BF43F820108F
:103F100042F82010401C0728F8D33D484FF40271A6
:103F20003830FCF76CFD3A4C68683834C4F800024D
:103F3000A868C4F80402296801F50060C4E96810A3
:103F40005FF0000001EB401204EB800302F5106209
:103F5000401CC3F8A8210728F4D3002001EB40122D
:103F600004EB800302F53062401CC3F8C42107282B
:103F7000F4D3002001EB003204EB800302F5805201
:103F8000401CC3F8E0210728F4D3D4F8A0118868B6
:103F90006A7B40F0810062B320F020008860D4F892
:103FA000A001C16841F0804141F48071C160D4F842
:103FB000A401016821F4000141F003010160D4F87B
:103FC000A401416841F002014160102004F5D07461
:103FD00000F080F800F05CF821680020886121681A
:103FE000401E4861697B0B48A4F5D074012903D0B9
:103FF00004E040F02000D1E706481030D4F8A011CA
:1040000040F440208861002070BD0000C4070020FB
:104010008C4300200E3C00C00548D0F8FC01C103D1
:1040200003D5400301D501207047002070470000F0
:10403000C4430020074810B5D0F8A401416841F0FE
:10404000020141604FF402710248FCF7D8FC0020E5
:1040500010BD0000C443002030B5034600200146D7
:104060000A4A1B7B0FE000BF01EB810404EBC10493
:1040700002EB840465682D0702D46468E40600D569
:104080000120491CC9B28B42EED830BDC443002088
:1040900008B500200090009840F0100000900099B2
:1040A0000B48D0F8A0211161D0F8A0214FF47A710B
:1040B0000220401C8842FCD3106900900098C00682
:1040C000F6D401200246401C8A42FBD308BD000002
:1040D000C443002008B500210091009941F020015F
:1040E0000091009960F38A11009100980B49D1F872
:1040F000A021106101204FF47A72401C9042FCD341
:10410000D1F8A0010169009100998906FAD4012033
:104110000146401C9142FBD308BD0000C44300206F
:104120002DE9F05F534C8246D4F8A40181690769F8
:104130004FF000088EB2454692E000BF10F0010F2C
:104140007ED004EB850105EB8500D1F8A83100EBAA
:10415000C50004EB80009968D4F8A421526B90F854
:1041600000C00CF00F0C22FA0CF202F0010247EA38
:10417000C21202EA01099AF80D1011B1012903D007
:1041800035E0D3F8108032E05FEA09612FD504EB07
:104190008C01D1F8E031D1F8A8118A69D0E90A1C64
:1041A000B1EB0C018B461BD00BF1030189081FFA00
:1041B00082FC8C4502D291B24FEA810B00220CE0C6
:1041C000D0F824C0DCF800C0C3F800C0D0F824C088
:1041D000521C0CF1040CC0F824C08A42F0D359469A
:1041E000C26A0A44C262426A02EB0B0141625FEAA0
:1041F000C9712FD09AF80D1071B91F4A18EA020F31
:104200000AD15FEA483107D1D0E90A12891A0A4473
:10421000C262426A11444162026B816A8A4217D1CA
:10422000416821F0080141609AF80D00012806D18B
:10423000D4F8A401426B0121A9408A43426300E003
:104240000CE0D4F8042245F080000221904701E000
:1042500000F08CF929464846FFF7FCFA6D1CEDB2D8
:1042600036FA05F07FF46AAFBDE8F05F0E20FFF785
:10427000C7BA0000C44300200000F81F2DE9F05F1A
:104280003C4E8346D6F8A4118869CA69D1F814A0B7
:104290001040070C0025A94664E000BF10F0010F94
:1042A0005ED005EB850000EBC50006EB800406EB55
:1042B0008500D0F8C411886800EA0A089BF80D0050
:1042C00008B9D1F810905FEA087021D5606820F035
:1042D000200060609BF80D0028B9C9F34170C0F15F
:1042E0000300C00020619BF80D00012803D1E16AA2
:1042F000206908442061606820F01000606000219F
:10430000D6F804220846904729460820FFF7ACFA61
:104310005FEAC87020D09BF80D0050B9D4E90A01BB
:10432000421AC9F31200101A0144E162616A08449A
:104330006062A16A206B88420BD1E06A20616068EC
:1043400020F010006060D6F8042201212846904732
:1043500002E0204600F0B8F829464046FFF784FA0C
:104360006D1CEDB237FA05F098D1BDE8F05F0D2075
:10437000FFF746BAC44300202DE9F041324C06460F
:10438000D4F8A401416841F0010141605FF00000F0
:1043900004EB8001D1F8C4110A6822F4001242F043
:1043A00000620A60401C0728F2D3D4F8A001402123
:1043B000416200252846102262F31F4061F30F007E
:1043C000D4F8A0118862012108020203D4F8A07178
:1043D00000EB811300EB810C42EA930347F80C30A9
:1043E000491C0729F2D31020FFF774FE0020FFF7C5
:1043F00071FEFFF74DFED4F8A4114FF00110C86113
:104400000F20FFF79BFA0F20FFF78EFAD4F8A401D4
:10441000016821F4FE610160707B012802D1D4F8AB
:10442000A4014563606820F010006060606820F0BF
:1044300008006060D4F8001204208847BDE8F0410D
:104440000420FFF7DDB90000C4430020F0B500EB05
:1044500080021C4C02EBC00204EB8000D4F8E03177
:10446000D0F8C40104EB820200688C08A5000004A7
:1044700026D5506A002823D0002004E01E68576A21
:1044800047F82060401CA042F8D3A94212D01F6810
:1044900000204FF0FF0C0AE0C6000CFA06F33B4088
:1044A000F340566A00EB840E401C06F80E302B18C1
:1044B0008B42F1D3D06A0844D062506A08445062FB
:1044C000F0BD0000C443002030B5846A026B8368ED
:1044D0000021151BC3F312039D4202D923448362BA
:1044E00000E0826203781B0714D0826AB2B1C36A0B
:1044F000D21A4368C3F3C623D418641EB4FBF3F383
:1045000063F3DC4162F31201154A1268537B154ACA
:1045100043B110E0144962F30601F5E7012262F3AA
:10452000DC41F1E70478436A04F00F0402EB8404F1
:10453000D4F8C4416361037803F00F0302EB8303F3
:10454000D3F8C4311961007800F00F0002EB80004D
:10455000D0F8C401016841F00441016030BD0000A1
:10456000C4070020C443002000000860F0B5D0F864
:1045700000C02F4A0CF00F0302EB83070021D7F88D
:10458000A8311E68056B846A8368A5EB040EC3F32B
:1045900012039E4501D2856201E023448362846A4E
:1045A0000123BCB15FEA0C7517D0C56A641B64F3C4
:1045B00012011FFA84FC4468C4F3C624651E1CFA69
:1045C00085F5B5FBF4F464F3DC411A4C2468657B93
:1045D00055B10DE063F3DC4116E0C56A63F3DC41DD
:1045E000641B64F31201F0E7D7F8A871456A7D6196
:1045F000647B012C08D1D2F8A441656B077807F0E1
:104600000F07BB401D436563037803F00F0302EB04
:104610008303D3F8A8311961007846F0044100F013
:104620000F0002EB8000D0F8A8010160F0BD00008F
:10463000C4430020C407002010B504461248844239
:1046400002D01248844202D10F48083010E01048CE
:10465000844202D00F48844202D10D48083007E05E
:104660000D48844202D00D48844203D10A480830E4
:1046700000F0C0F80320E060E068C007FCD0206CC8
:1046800020F00F00206410BD000003400002034032
:10469000000002480002024800400248004202486E
:1046A00010B5D0F80C4124F0E064C0F80C4141EAA8
:1046B000032141EA0261D0F80C21044B1A40114356
:1046C00041F08051C0F80C1110BD0000C0C0FFEFD8
:1046D00010B5D0F80C3107248C40A3438A40134313
:1046E000C0F80C3110BDD0F80C3123F0E063C0F8F5
:1046F0000C31D0F80C3123F47C5343EA022242EA15
:104700000161C0F80C1170472DE9F04714460E46C0
:104710000546642933D38CB3FEF7CEFD01466420F1
:10472000B1FBF0FCB6FBF0F2012740F2FF33B846D4
:10473000194662434FF480690CFB01F0B0FBF2F6BE
:10474000B00AC6F30906484504D29E4202D2334657
:1047500080460F46491EEFD147F400402861686942
:1047600008490840091401EB84210843064901EB7C
:104770000841084368610020BDE8F087FFE7012099
:10478000FAE70000EF8000FC0000FFFF00EB810073
:10479000C16921F007011143C161704710B58369F8
:1047A00007248C40A3438A401343836110BD00005B
:1047B00010B5D0F8084124F0E064C0F8084141EA9F
:1047C000032141EA0261D0F80821034B1A4011434A
:1047D000C0F8081110BD0000C0C0FFF810B5D0F837
:1047E000083107248C40A3438A401343C0F80831A2
:1047F00010BD00000C4910B5884201D1C41409E075
:104800000A49884201D10A4C04E00A49884209D188
:10481000074C80342046FEF70DFF2046BDE81040CF
:10482000FEF772BF10BD00000800034008000248F8
:104830008000001008400248002809DB00F01F0239
:10484000012191404009800000F1E020C0F8801271
:104850007047002809DB00F01F0201219140400948
:10486000800000F1E020C0F800117047002809DB4B
:1048700000F01F02012191404009800000F1E0207A
:10488000C0F8001170478906090E002804DB00F10A
:10489000E02080F80014704700F00F0000F1E020E5
:1048A00080F8141D70478906090E002804DB00F10A
:1048B000E02080F80014704700F00F0000F1E020C5
:1048C00080F8141D704730380A2801D20120704743
:1048D0000020704703F084B910B54FF48C710120AB
:1048E000FBF726FD040003D003F08DF9204610BD30
:1048F000002010BD10B5044603F07EF92046BDE847
:104900001040FBF758BD00002DE9F04FADF5006DEC
:10491000002301210DF580604FEA0D0240F82310BD
:1049200042F821300C0601D51B2400E0002484EA63
:1049300041044C405B1CE1B2FF2BEFDD0021594CE0
:10494000012300BF44F821301D0601D51B2500E0DE
:10495000002585EA4303491CDBB20A29F2DB524CED
:1049600063210025217004F58853012183F86350E9
:1049700052F82160C6F1FF0650F82660770047EA3A
:10498000E617FFB27E404FEA470C4CEAE717FFB24A
:104990007E404FEA470C4CEAE717FFB27E404FEAF1
:1049A000470C4CEAE717FFB27E4086F06306665478
:1049B0009955491CFF29DBDDDFF8F0900021A34663
:1049C00009F5806A09F5006E5FF0FF041BF80170BD
:1049D0003E0601D51B2600E0002686EA470606F0C3
:1049E000FF0C8CEA07068CEA072C8CEA074787EA5B
:1049F000066649F821604FEA36664AF821604FEAB8
:104A000036664EF821604FEA3667294E46F8217027
:104A10005E5C46B352F826600E9F374497FBF4FC69
:104A200004FB1C77DDF824C050F82770B4449CFBCD
:104A3000F4F804FB18CC50F82CC087EA0C2C0D9F1E
:104A4000374497FBF4F804FB187750F827708CEA8A
:104A50000747DDF82CC0664496FBF4FC04FB1C669B
:104A600050F8266001E02F46002687EA0666114FBF
:104A700047F8216007F580674FEA366647F82160FE
:104A800007F580674FEA366647F821604FEA3667D8
:104A9000094E46F82170491CFF2997DD0DF5006D80
:104AA000BDE8F08F9C3E00209C1C00209C1D002037
:104AB0009C2900209C2E00209C3A002003F0A8B8DE
:104AC00003F00CB9884200D30846704713460A46E3
:104AD000022103F01EBA00002DE9FF4F95B06FF0E0
:104AE0000C07289EDDF888A0249C022E35D0102EBD
:104AF00033D8F00731D1AAF1070007282DD2B4F539
:104B00007F4F2AD8CAF10F00C5B200208DF81C00D3
:104B10000CB1012100E0002140EA8110B11E4908DA
:104B200040EAC100691E084303918DF81C005246FB
:104B30000DF11C090DF11D001899FBF7B4FE0021C1
:104B40004A46179806E000BFC1F10F03491CD05434
:104B5000C9B2000AA942F7D318B1384619B0BDE866
:104B6000F08F00200B900C900D900BA90E900B5C19
:104B700019F80020884653400B54401CC0B210283E
:104B8000F5D30DF14C0B0B461022CDF800B0159863
:104B900003F08AFA0028E1D1002C5CD02398019020
:104BA00000200790089009900A90200A8DF81C00B8
:104BB0008DF81D400E2C01D2274600E00E273A4604
:104BC0000DF11E000199FBF76EFE0198E41B3844BD
:104BD0000190002007AF41463B5C0A5C5A400A54F2
:104BE000401CC0B21028F7D30BAB10221946CDF8E9
:104BF00000B0159803F058FA0028AFD129E0102C26
:104C000001D9102000E02046059000200A9007906E
:104C10000890099007A8059A0199FBF744FE002027
:104C200041463B5C0A5C5A400A54401CC0B2102802
:104C3000F7D30BAB10221946CDF800B0159803F04E
:104C400033FA00288AD105980599241A0198084456
:104C50000190002CD3D103988DF83C000FAC524644
:104C6000601C1899FBF71FFE04EB0A002946401C44
:104C7000FBF7A3FE01208DF84B002598179C0190AF
:104C8000DDF898A076E0102C01D9102700E0274627
:104C9000169800BB00200790089009900A903A46A9
:104CA00007A80199FBF7FFFD00204A46414612F88C
:104CB00000C00B5C83EA0C030B54401CC0B21028EC
:104CC000F5D30BAB10221946CDF800B0159803F0C0
:104CD000EBF9002891D107AB10220FA9CDF800B055
:104CE000159803F0E1F9002887D108E001990A5CE2
:104CF00019F800104A400AF80020401CC0B2B8421F
:104D0000F4D31698012820D100200790089009902C
:104D10000A903A46514607A8FBF7C5FD00204B46CE
:104D2000414613F800C00A5C82EA0C020A54401C97
:104D3000C0B21028F5D30BAB10221946CDF800B045
:104D4000159803F0B1F90028C4D10198E41B384448
:104D50000190BA4400200FA90AE000BFC0F10F0281
:104D60008B5C5B1C13F0FF038B5403D1401CC0B25F
:104D7000A842F3D3002C86D1002002460FA904E0FC
:104D8000C0F10F03401CCA54C0B2A842F8D307AB0D
:104D90001022CDF800B0159803F086F9002899D1BB
:104DA0004A464146145C0B5C63400B54401CC0B245
:104DB0001028F7D332460BA92798FBF774FD002083
:104DC000CCE610B538210120FBF7B2FA040001D07F
:104DD00003F09CF8204610BD10B5044603F08AF895
:104DE0002046BDE81040FBF7E6BA4FF4817128B1C8
:104DF000427B012A02D001214173002108467047FD
:104E000001490020087170479006002001490020E8
:104E1000487170479006002070B52F4E00252D4A2E
:104E200029463046FEF784F82A492C4C183920468A
:104E3000FEF799FCE06920F0070040F00300E06114
:104E40000123042210212046FFF7B2FC0023042294
:104E500019462046FFF724FC206C20F00F00801C30
:104E600020641C4A01210C3A3046FEF761F800220A
:104E700010212046FFF792FC032210212046FFF765
:104E8000ADFC052210212046FFF722FC052213214C
:104E90002046FFF71DFC124C20680022C0F30220C0
:104EA0003E21FDF726F801465720FFF7FCFC57206E
:104EB000FFF7DCFC20680022C0F302203E21FDF752
:104EC00018F801465920FFF7EEFC5920FFF7CEFCF9
:104ED000284670BD8CDB00080085024800000340B6
:104EE0000CED00E02DE9F0439FB06420ADF87400B4
:104EF000012500262FA231A1364806F06FF90022C5
:104F00003549104605F070FE070032D000223349C3
:104F1000104607F0E9F906002BD0314CA846A4F85A
:104F200000802C4A4EF2F10949460823083A3046DF
:104F300007F0BBFB05001CD120880128FCD020888D
:104F4000A8B9A4F80080ADF870901DAA03A91CA808
:104F50008DE80700002310220321384605F081FE6A
:104F6000050006D120880128FCD0208820B12588A2
:104F70001DB12A461BA102E000252A460DA10FA063
:104F800006F05CF947B1384605F056FE020003D042
:104F900014A10AA006F052F9002E08D0304607F0FE
:104FA000CBF9020003D00FA104A006F047F91FB00F
:104FB000BDE8F0831B5B306D000000005B6F707418
:104FC000696761206578616D706C655D20203A20AD
:104FD0000000000024D70008C5AB000869C2000823
:104FE000340000201B5B33316D00000070B598B0B9
:104FF0005020ADF8580001241CA21EA1234806F041
:10500000EDF800222249104605F0EEFD060017D00B
:10501000204D0120288016A902A8CDE900011B49D6
:105020004EF2F00320222039304605F023FE040022
:1050300006D128880128FCD0288820B12C881CB1F2
:10504000224615A102E00024224608A109A006F08C
:10505000F5F8002E08D0304605F0EEFD020003D032
:105060000DA104A006F0EAF818B070BD1B5B306D0E
:10507000000000005B6F7074696761206578616D86
:10508000706C655D20203A2000000000FCD600080E
:10509000B9AB0008320000201B5B33316D0000000B
:1050A00070B586B0012425A226A12C4806F096F8FA
:1050B0002A482B4B2B4A4021A23800F05DFF27499C
:1050C000274DAA390022D1E90001CDE90301288842
:1050D000ADF810002449104605F086FD060016D0F4
:1050E0000121698003AA42208DE807001B4B202282
:1050F000423BA3F12001304605F0C9FD040006D172
:1051000068880128FCD0688820B16C881CB12246D0
:1051100016A102E00024224608A10AA006F08EF89B
:10512000002E08D0304605F087FD020003D00FA105
:1051300004A006F083F806B070BD00001B5B306D64
:10514000000000005B6F7074696761206578616DB5
:10515000706C655D20203A2000000000BAD600087F
:105160002E000020C8150020ADAB00081B5B3331BA
:105170006D000000F0B5B9B0012524222DA128A8AA
:10518000FBF7D6FB34A236A13B4806F027F80022F5
:105190003A49104605F028FD060035D004A80190D4
:1051A00082200290E220364C8DF80C0001272780E7
:1051B00001A9304605F074FE050025D1208801289C
:1051C000FCD02088F0B928A826902120279027809D
:1051D00026AB012201A9304605F078FE050013D167
:1051E00020880128FCD0208860B9278031AA01A935
:1051F000304605F0F1FD050006D120880128FCD0DD
:10520000208820B125881DB12A461EA102E0002574
:105210002A4611A112A006F011F8002E08D030463F
:1052200005F00AFD020003D016A10DA006F006F855
:1052300039B0F0BD4F50544947412C20496E666942
:105240006E656F6E20546563686E6F6C6F6769651D
:1052500073204147000000001B5B306D0000000020
:105260005B6F7074696761206578616D706C655DF6
:1052700020203A20000000004ED70008D1AB0008E3
:10528000360000201B5B33316D00000070B596B016
:10529000012424221EA104A8FBF74AFB25A227A172
:1052A0002C4805F09BFF00222B49104605F09CFC82
:1052B000060017D004A802902120284D0390012059
:1052C00028800DA8009002AB0122E221304605F0B3
:1052D0006CFD040006D128880128FCD0288820B164
:1052E0002C881CB122461EA102E00024224611A1F6
:1052F00012A005F0A3FF002E08D0304605F09CFC5C
:10530000020003D016A10DA005F098FF16B070BDE5
:105310004F50544947412C20496E66696E656F6E47
:1053200020546563686E6F6C6F67696573204147D1
:10533000000000001B5B306D000000005B6F7074AC
:10534000696761206578616D706C655D20203A2029
:105350000000000068D70008D1AB0008360000202C
:105360001B5B33316D00000070B588B001241AA2B8
:105370001BA1214805F032FF00222049104605F00C
:1053800033FC060011D01E4D0120288020236A46E0
:105390000021304605F0B3FD040006D1288801281D
:1053A000FCD0288820B12C881CB1224615A102E02F
:1053B0000024224608A10AA005F040FF002E08D0D4
:1053C000304605F039FC020003D00EA104A005F020
:1053D00035FF08B070BD00001B5B306D00000000A1
:1053E0005B6F7074696761206578616D706C655D75
:1053F00020203A200000000087D70008DDAB00081D
:10540000380000201B5B33316D0000002DE9F04FA8
:10541000B9B05020ADF8D000002501276420ADF8C8
:10542000D400ADF8DC703C46A9468DF8D85084A273
:1054300085A18BA005F0D2FE81A283A1934805F03F
:10544000CDFE00229249104606F04EFF06007CD0A9
:1054500000228F49104605F0C7FB0500F7D0DFF8A2
:105460003482A8F800700021304606F081FF040065
:105470006BD100BFB8F800000128FBD0B8F80000DD
:1054800000287BD100F034FBA8F80070ADF8E09064
:1054900002220121284605F047FD0DF10C0935AA2D
:1054A000494638A88DE8070000231022032128462A
:1054B00005F0D7FB040048D1B8F800000128FBD064
:1054C000B8F80000002859D14EF2C50A4FF47A7B93
:1054D0004FEA0704A8F8004037A8009036AB002236
:1054E0005146304606F0DDFF88B900BFB8F800002D
:1054F0000128FBD0B8F8000010B1B8F8000006E0B1
:10550000584607F08DFB9DF8D8000028E2D12746C9
:10551000A8F800400121304606F0B2FE040069D12F
:10552000B8F800000128FBD0B8F8000030BBA8F89C
:1055300000700121304606F01BFF04005AD100BF65
:10554000B8F800000128FBD000E053E0B8F80000F4
:10555000A0B9A8F8007002220121284605F0E4FC59
:1055600034A91EA8CDE90001484900232022203992
:10557000284605F07FFB04003CD100E037E0B8F896
:1055800000000128F9D0B8F8000080BBA8F800702E
:10559000BDF8D410ADF8CC1003218DF8CE10BDF8B5
:1055A000D020CDF8C89032A90291CDE90027374923
:1055B0001EAB20222039284605F069FB040019D1D2
:1055C000B8F800000128FBD0B8F8000078B9A8F8B6
:1055D00000700021304606F053FE04000AD100BFDF
:1055E000B8F800000128FBD0B8F8000028B1B8F8DE
:1055F000004044B1224628A107E0002410A212A1D5
:1056000027A005F0EBFD22460DA10FA005F016FE28
:1056100046B1304606F090FE020003D01EA10AA05B
:1056200005F00CFE002D08D0284605F005FB020011
:1056300003D019A104A005F001FE39B0BDE8F08F38
:105640001B5B306D000000005B6F70746967612048
:105650006578616D706C655D20203A200000000067
:10566000426567696E2064656D6F6E7374726174F4
:10567000696E672068696265726E6174652066652F
:1056800061747572652E2E2E0A00000011D8000874
:10569000B9B00008120100201B5B33316D0000001F
:1056A00048696265726E61746520666561747572C1
:1056B000652064656D6F6E7374726174696F6E20BE
:1056C000636F6D706C657465642E2E2E0A00000089
:1056D0002DE9FC4700254EF2E3074BA24CA15248AE
:1056E00005F07CFD00225149104606F0FDFD060044
:1056F00074D008234E4A394607F00CFB4C4C4FF04F
:10570000010AA41E98B9A4F800A04FF417714948E3
:10571000CDE90001002340223946304606F066FFFD
:1057200028B920880128FCD0208810B120880500E5
:105730004BD1DFF8F4904FF00008A9F1100900BF39
:1057400009EB081730463B7A39887A6807F0E2FAA5
:1057500005003AD1A4F800A0F868038901784268EE
:10576000304606F08AFE05002FD120880128FCD0A3
:105770002088F0B9F868C16861B1A4F800A0028A75
:10578000304606F05BFE05001FD120880128FCD0C2
:10579000208870B9A4F800A0F868028B41693046EF
:1057A00006F05CFE050010D120880128FCD020887E
:1057B00010B125884DB911E01E4A39880623921F81
:1057C000304607F0A7FA050002D02A461AA107E0E2
:1057D00008F1010080B25FEA0008B1D02A460AA1B0
:1057E0000BA005F02BFD002E0BD0304606F0A4FDDB
:1057F000020006D002B010A1BDE8F04704A005F0F9
:105800001DBDBDE8FC8700001B5B306D0000000083
:105810005B6F7074696761206578616D706C655D40
:1058200020203A2000000000E4D500085DC20008F6
:105830002600002076D300081B5B33316D0000008A
:105840002DE9F043ADF20C4D01242FA230A13648D2
:1058500005F0C4FC00223549104606F045FD06005F
:1058600039D04FF480684EF2E0070024ADF804848C
:1058700001220221304606F0A3FE02220121304619
:1058800006F09EFE2A4D4FF00109A5F800900DF29A
:105890000440009001AB22463946304606F001FE36
:1058A000040018D128880128FCD0288888B9ADF8D0
:1058B00004843946A5F800900DF2044301AA30464D
:1058C00006F031FE040006D128880128FCD0288883
:1058D00020B12C881CB1224616A102E000242246E9
:1058E00009A10BA005F0AAFC002E08D0304606F056
:1058F00023FD020003D00FA105A005F09FFC0DF2CF
:105900000C4DBDE8F08300001B5B306D0000000013
:105910005B6F7074696761206578616D706C655D3F
:1059200020203A200000000042CD000839C20008C3
:10593000000000201B5B33316D0000002DE9FC41AD
:10594000012525A226A12C4805F048FC00222B4960
:10595000104606F0C9FC060025D0294C00234EF263
:105960002011012788462780234808220838CDE9DE
:1059700000024022304606F039FE050013D120888F
:105980000128FCD0208860B9278005224146304696
:1059900006F020FE050006D120880128FCD02088D2
:1059A00020B125881DB12A4616A102E000252A460D
:1059B00009A10BA005F042FC002E0BD0304606F0EA
:1059C000BBFC020006D002B00EA1BDE8F04104A06D
:1059D00005F034BCBDE8FC811B5B306D00000000AD
:1059E0005B6F7074696761206578616D706C655D6F
:1059F00020203A200000000010D0000851C200080A
:105A0000040000201B5B33316D0000002DE9FC41D8
:105A1000012529A22AA1304805F0E0FB00222F49E8
:105A2000104606F061FC06002CD000254EF2E80876
:105A30002A46012106F0C4FD294C0127278040F2A7
:105A400082212848CDE900012B46402241463046BC
:105A500006F0CCFD050015D120880128FCD0208857
:105A600070B927801F4A0723D21F4146304606F0EF
:105A70001CFE050006D120880128FCD0208820B11A
:105A800025881DB12A4618A102E000252A460AA150
:105A90000BA005F0D3FB002E0BD0304606F04CFCDB
:105AA000020006D002B010A1BDE8F04104A005F04C
:105AB000C5BBBDE8FC8100001B5B306D0000000031
:105AC0005B6F7074696761206578616D706C655D8E
:105AD00020203A2000000000E9CF000845C200085D
